:1000000080F13EB882F104BD82F110BD82F11CBDC9
:1000100082F12BBD82F13ABD82F149BD82F158BD1A
:1000200080F13EB882F104BD82F110BD82F11CBDA9
:1000300082F12BBD82F13ABD82F149BD82F158BDFA
:10004000FAFAFAFAFAFAFAFAFAFAFAFAFAFAFAFA10
:10005000FAFAFAFAFAFAFAFAFAFAFAFAFAFAFAFA00
:10006000FAFAFAFAFAFAFAFAFAFAFAFAFAFAFAFAF0
:10007000FAFAFAFA444250502CF21D00000018001F
:10008000DFF844804FF00009B8E8FF00A9E8FF005E
:10009000EFF300804FF01F0120EA01004FF0D10183
:1000A00040EA010080F30089DFF820D0EFF3008000
:1000B0004FF01F0120EA01004FF0DF0140EA01008C
:1000C00080F30089024800472000180080E41D00EA
:1000D000CD2B180000000000000000000000000010
:1000E0000000000000000000000000000000000010
:1000F0000000000000000000000000000000000000
:1001000000000000000000000000000000000000EF
:1001100000000000000000000000000000000000DF
:100980003D3718005FE01A00BBE01A0055DA1A0084
:10099000CDD71A0019D71A0061D81A00D7D51A0076
:1009A000B3D61A0035E11A003D37180099D51A0060
:1009B000B3D51A0001DB1A00C1D51A0001E01A00F4
:1009C000ADD51A0099DE1A00692B1800652B1800A6
:1009D000612B1800592B18003D3718008D2B18007B
:1009E0003D371800D9A81800B7A71800D9A71800D4
:1009F000BDA71800D5A71800DDA718003D371800BF
:100A000075A8180039A8180089A81800F5A71800BB
:100A1000B1A81800F1871800E98918003D371800BF
:100A2000ABA21800E79D180003A31800699F1800E7
:100A300015A318003BA61800C56D1E003DA41800A4
:100A4000BF9E18002B9F1800A7A61800A9A6180083
:100A5000D7A21800C36D1E003D3718003D3718009F
:100A60003D3718003D3718003D371800D1311C00C4
:100A70003D3718003D3718003D3718000F791A0030
:100A80003D37180013791A003D3718003D3718001C
:100A90003D3718003D3718003D3718003D37180026
:100AA0003D3718003D3718003D3718003D37180016
:100AB0003D3718003D3718003D371800571F1B0001
:100AC0003D3718003D3718003D3718003D371800F6
:100AD0003D3718003D3718003D371800E5041B006E
:100AE000E7061B0013F11A0019EF1A0001EF1A00B4
:100AF000C5F01A0069F11A00FBEE1A0025F91A0078
:100B0000C5F71A00AF091B0077091B003D37180015
:100B10003D091B0017791A003D3718000F1F1B00F5
:100B2000CD1F1B003D3718003D3718003D3718001A
:100B30003D3718003D3718003D3718003D37180085
:100B40003D3718003D3718003D3718003D37180075
:100B50003D3718003D3718003D3718003D37180065
:100B60003D3718003D3718003D3718003D37180055
:100B70003D3718003D3718003D3718003D37180045
:100B80003D3718007FA11C00A9971C009D8B1C00FD
:100B9000B7B21C00A3961C0083951C0005901C0096
:100BA000099C1C004F9C1C00439C1C00DB8B1C0000
:100BB00085A91C00A99A1C003D3718003D37180074
:100BC00081911C0035911C008B901C0045901C00ED
:100BD00017901C0059AD1C003D3718003D37180018
:100BE000C78F1C0003A11C00CF9F1C00BF8C1C00E2
:100BF000659F1C003D3718004DC01C003D37180094
:100C00003D371800678F1C00C78B1C00D18B1C0060
:100C10000BA81C00C58B1C0033971C0031971C00CF
:100C2000E5A21C00119A1C003D3718006D9F1C00A6
:100C3000B7B91C0099B91C00A5B91C00918F1C0004
:100C4000BBA21C00D9A71C00C3A71C007D951C00DB
:100C50003D371800BF8B1C003D371800C9991C0098
:100C60003D3718003DC01C004B901C004B9F1C00E2
:100C7000139F1C00C98F1C00719F1C003D3718007A
:100C80003D3718003D3718003D37180053AE1C00A3
:100C9000C9911C00FD951C001F951C00F5941C00BB
:100CA0003D3718003D37180053951C007D941C00FB
:100CB000F1911C0047951C000FAB1C003D3718003C
:100CC0003D3718003D3718007B061B00C9061B0086
:100CD00011061B005D061B00AD0B1D00A70C1D00BF
:100CE000750C1D00B50D1D0007111D00CD101D0058
:100CF000F50B1D004B0B1D00950C1D00170C1D0066
:100D00006B0B1D00710B1D003D3718003D3718009F
:100D10003D3718003D371800214E1D003D371800A3
:100D20003D3718003D3718003D371800454E1D006F
:100D30003D3718003D3718003D3718003D37180083
:100D40003D3718003D371800D5781A00DF541D00D4
:100D5000F3581D00CB571D0097581D004D581D001E
:100D6000FF581D0091581D0063551D00BB571D0005
:100D70003D3718003D3718003D371800C9051B00E6
:100D80003D371800D1401800C18C1800CD8C1800D8
:100D9000FF8F180021D018003573190011F81800C2
:100DA000512F180099301800AD311800713C18000F
:100DB000C93C18003D3718003D3718003D37180072
:100DC0003D3718003D3718003D3718003D371800F3
:100DD0003D3718003D37180003851800D1861800EC
:100DE00093221E004B241E00F98C18003D3718007A
:100DF0000F8F180019901800999018005991180039
:100E00003D37180015A9180055AD1800A5AE1800FB
:100E10001DC41800F9C418009DCB180015CC18008B
:100E20003D37180053CC18005FCC180071CC180067
:100E30005BCC180061CF18003D37180027D0180090
:100E4000FFD81800F9D9180053DA180069DA180029
:100E500083DA180099DA180081DB18000DDC18001D
:100E600079DC1800A3DA180001E01800F9DC18009A
:100E70004FDA180011F118001DF11800E5F1180003
:100E8000F5F518002DF818008DF9180099F91800DB
:100E9000A1F91800B5F91800CBF91800F3F91800FA
:100EA000CFFA1800250C1900890C1900F5FB180061
:100EB000DD1719003D37180031291900B52919002F
:100EC00025351900E1361900FB3819007142190067
:100ED00089421900054519002345190031451900BB
:100EE0002D46190087461900A34619008F50190096
:100EF0008954190019711900E3761900398F190006
:100F000079931900399B1900799E190049B019008D
:100F100041B6190039BF1900CDC61900F9CF190023
:100F20003D3718003D37180021ED19003D371800F6
:100F30003D371800550A1A0049351A0021351A00A4
:100F400059381A003D37180085441A00B7481A006E
:100F5000E1501A0015671A00D5611A0037621A00AD
:100F600081791A0039821A003D371800A5821A00CB
:100F70003D3718003D371800AD8F1A00E7BD1A0045
:100F8000E5E21A008BEC1A00A3EC1A00A9EC1A0097
:100F9000B5EC1A00BDEC1A0079ED1A008DED1A00BF
:100FA00097ED1A00BFED1A00F9ED1A00CD0B1B00EA
:100FB00039C91C003DC91C004DC91C003D37180033
:100FC0003D3718008DC91C003D3718003D3718000B
:100FD000FD011D00CB391D000101010000000008CA
:100FE000200000000002000004000000FF030000D9
:100FF0005000000001000000010000000A07080185
:1010000000000000080000000004000001040000CF
:1010100004000400080001000000000000000000BF
:1010200000000000000000000000000000000000C0
:1010300000000000000000000000000000000000B0
:1010400000000000000000000000000000000000A0
:101050000000000000000000000000000000000090
:1018000088F184B90000000088F11DB900000000D3
:1018100088F160B80000000087F1A9BF0000000057
:101820006FF124BF000000006CF1CCBD000000008F
:1018300085F1B6BC0000000060F10CBC00000000A7
:1018400060F126BB0000000082F19CB9000000009E
:1018500082F1F0B90000000081F1E0BE000000005C
:101860007BF126B9000000007BF194BC0000000071
:101870007BF106BB0000000085F1B4B80000000059
:1018800084F19CBE0000000084F138BE000000001E
:101890007CF19CBE000000007CF1F9BB0000000060
:1018A0007AF166BC000000007AF157BE000000002B
:1018B00079F1CDBF0000000079F10EBF00000000FB
:1018C00079F13ABD000000007BF179B90000000019
:1018D0007CF1B1BF000000007CF18BBF0000000074
:1018E00075F19EBC0000000075F194BD0000000081
:1018F00080F129BA0000000077F100BA0000000072
:101900007CF159BC000000007EF123B8000000000B
:1019100071F142BC000000007BF19CBD00000000A2
:1019200070F120BB0000000070F1F2B80000000070
:101930006FF180BE000000006FF180BD000000006C
:101940006FF157BD000000006FF16ABD000000009C
:1019500076F1DDBE000000007AF1A0BD00000000BD
:101960006EF130BD000000006EF136BA00000000DC
:101970006EF136B8000000006FF126BC00000000D8
:101980006EF18CBC000000006DF1E5BC00000000B1
:101990006DF1C4BA000000006DF1DEBA0000000075
:1019A0006CF1EABC000000006DF10FBF0000000008
:1019B0006EF19EB8000000006DF1CEB8000000008E
:1019C0006DF1C8BB000000006CF140BC00000000DD
:1019D0006CF1CDB9000000006BF17ABD0000000091
:1019E0006CF148BE000000006CF1FABC0000000081
:1019F0006BF14CB9000000006AF123BE000000004A
:101A00006AF18CBC000000005AF1C5B9000000006A
:101A100070F1EFBB000000006AF13EBB0000000067
:101A200069F10DBF0000000069F122BD0000000057
:101A300069F1C9BD0000000069F13EBB0000000073
:101A40006AF126B80000000069F116BE000000002F
:101A500069F180BB0000000069F17AB80000000065
:101A600069F1D2B9000000006BF1FCB90000000080
:101A70006BF184BC000000006AF195BB000000001F
:101A80006AF13CBB0000000069F196BA000000005A
:101A900069F110BA0000000069F16FB800000000A1
:101AA00067F1C2BE0000000066F1B6BC0000000095
:101AB00075F13EBA0000000064F1F4B800000000C7
:101AC00064F16ABB0000000064F138BC0000000053
:101AD00064F179BB0000000064F149BC0000000023
:101AE00063F1AEBD0000000062F1F2BE0000000034
:101AF00062F15ABA0000000062F193B800000000E1
:101B000061F1ECBE0000000062F14CB80000000082
:101B100062F112B90000000061F186BD0000000012
:101B200061F154BB0000000072F196BD000000009E
:101B300063F151B80000000062F1CCB90000000070
:101B400062F1DEBE0000000062F184BD0000000012
:101B500062F122BD0000000062F14EB900000000F9
:101B600061F11ABF0000000062F1C6B80000000079
:101B700061F194BD0000000061F196B90000000021
:101B800065F1E6B80000000061F1C4BB0000000090
:101B90005DF1ECBF000000005DF108BB000000003B
:101BA0005DF17EBE000000005DF196BA000000000D
:101BB00062F1DEB8000000005CF1F2BD0000000040
:101BC0005DF1A0BC000000005DF1B4B900000000B0
:101BD0005DF1FAB8000000005DF100B900000000FE
:101BE00072F175BB0000000073F10EBF0000000031
:101BF00071F112BC000000005BF102BF00000000A8
:101C00005DF1A2BC0000000062F132BA00000000E9
:101C10005CF177BB000000005CF11DBB0000000020
:101C20006DF165BE000000005CF1DEBC000000004C
:101C30006BF1F4BA000000006BF1F8BA000000008C
:101C40005CF10EBF000000006DF107BB000000005A
:101C50006CF131B80000000072F16ABE00000000B3
:101C60006BF1E6BF000000006BF14AB80000000015
:101C700065F116BE0000000068F164B800000000C5
:101C800067F1A6B8000000005BF17EBA000000001A
:101C90005BF182B9000000006BF19AB9000000000E
:101CA00059F18EBD0000000054F124BD0000000079
:101CB00054F1D0BC0000000067F1C4BC000000007B
:101CC0006CF13ABF000000006CF1F3BE00000000B0
:101CD0006BF1DCBC0000000066F1EDBA0000000012
:101CE0006AF184BF0000000069F132B90000000011
:101CF00066F135B9000000006AF124BA0000000066
:101D000069F1EABF000000006EF168BE000000004B
:101D100069F148BF000000006BF1E3B9000000006A
:101D20006CF13ABB0000000069F186BB00000000C6
:101D30005CF1B6BF0000000069F178B80000000057
:101D40005CF17CBC0000000066F127BD00000000D3
:101D500063F188BF0000000063F185BF0000000050
:101D600066F184B80000000066F1A9B80000000028
:101D700066F144B80000000065F1E6BA000000001A
:101D800065F154B90000000065F1ADBA0000000033
:101D900068F178BD0000000064F164BD000000003F
:101DA00064F1D4BC0000000064F1DEBF000000005C
:101DB00064F146BB000000005CF144BD000000007F
:101DC0006BF1B2BC000000006BF169BA00000000CA
:101DD0006BF1CEB8000000006FF16BBD0000000099
:101DE0006AF12BBA0000000068F194BF0000000007
:101DF00067F15DBD000000006CF1E0B9000000007B
:101E000063F129BD000000006BF181BF00000000FC
:101E100068F19CBA0000000067F1B8B9000000004A
:101E200063F135BA0000000063F168BB00000000F8
:101E300062F10ABE0000000064F114B80000000066
:101E400063F12ABE0000000063F137B90000000012
:101E500062F195BE0000000062F1BBBD0000000011
:101E600062F149B90000000067F12BBF00000000DB
:101E70006BF1FEBA0000000069F182BA00000000B8
:101E800059F1F0BE0000000059F1E6BC000000006E
:101E900059F110BF000000006AF1A2B80000000074
:101EA00064F1A0BC0000000064F166BB000000000B
:101EB0000000000000000000000000000000000022
:101EC0000000000000000000000000000000000012
:101ED0000000000000000000000000000000000002
:101EE00000000000000000000000000000000000F2
:101EF00000000000000000000000000000000000E2
:101F000000000000000000000000000000000000D1
:101F100000000000000000000000000000000000C1
:101F200000000000000000000000000000000000B1
:101F300000000000000000000000000000000000A1
:101F40000000000000000000000000000000000091
:101F50000000000000000000000000000000000081
:101F60000000000000000000000000000000000071
:101F70000000000000000000000000000000000061
:101F80000000000000000000000000000000000051
:101F90000000000000000000000000000000000041
:101FA0000000000000000000000000000000000031
:101FB0000000000000000000000000000000000021
:101FC0000000000000000000000000000000000011
:101FD0000000000000000000000000000000000001
:101FE00000000000000000000000000000000000F1
:101FF00000000000000000000000000000000000E1
:10200000F408000004000000001818005409000043
:102010000400000008181800040B00000400000071
:1020200010181800DC0B000004000000181818003D
:10203000D4FD02000400000020181800643F0300D3
:1020400004000000281818001838000004000000E0
:1020500030181800F0B1040004000000381818000F
:10206000B4B204000400000040181800D86F00004B
:102070000400000048181800D87200000400000096
:1020800050181800C8770000040000005818180005
:10209000508100000400000060181800A0810000BA
:1020A00004000000681818009C870000040000006D
:1020B00070181800D03E00000400000078181800C6
:1020C0000C43000004000000801818004045000088
:1020D00004000000881818008CDD000004000000D7
:1020E0009018180028E50000040000009818180057
:1020F000A407010004000000A0181800EC0801006B
:1021000004000000A8181800D82B010004000000EB
:10211000B01818004C2C010004000000B81818007A
:10212000303F010004000000C0181800946A01004C
:1021300004000000C8181800A87101000400000085
:10214000D0181800707A010004000000D818180098
:10215000A889010004000000E0181800DC890100D3
:1021600004000000E8181800288E01000400000098
:10217000F0181800809D010004000000F8181800F5
:10218000DCA901000400000000191800D4CD0100F2
:102190000400000008191800FCD101000400000030
:1021A00010191800E0D701000400000018191800E9
:1021B000D8DC0100040000002019180088D40200B7
:1021C000040000002819180060D802000400000074
:1021D0003019180038DE0200040000003819180019
:1021E0006CDF02000400000040191800C0DF02008C
:1021F0000400000048191800D0DE010004000000AF
:1022000050191800D0E3010004000000581918000C
:10221000E8F60200040000006019180038F9020016
:10222000040000006819180080FB02000400000090
:102230007019180064FF02000400000078191800EB
:10224000900303000400000080191800CC10030064
:102250000400000088191800641103000400000045
:1022600090191800B8150300040000009819180010
:102270008C1A030004000000A0191800602103005C
:1022800004000000A8191800D42303000400000073
:10229000B01918003841030004000000B8191800F4
:1022A0004425030004000000C0191800FC4203008C
:1022B00004000000C8191800B0500300040000001A
:1022C000D01918001C51030004000000D819180090
:1022D0002834030004000000E01918007C340300D7
:1022E00004000000E8191800A035030004000000F5
:1022F000F01918005873030004000000F8191800C2
:102300003877030004000000001A1800204B050075
:1023100004000000081A180040E401000400000056
:10232000101A1800789A030004000000181A180008
:10233000149C030004000000201A1800B49C030041
:1023400004000000281A1800E49D030004000000A7
:10235000301A1800449F030004000000381A1800C7
:1023600024A6030004000000401A1800A4A70300DC
:1023700004000000481A180084A8030004000000AC
:10238000501A1800F8A9030004000000581A180099
:10239000C4AE030004000000601A1800E8B803008F
:1023A00004000000681A180038BB03000400000095
:1023B000701A180038BC030004000000781A1800D6
:1023C00020BD030004000000801A1800A4BD030013
:1023D00004000000881A180040C103000400000037
:1023E000901A180028D4030004000000981A18005E
:1023F000F8E3030004000000A01A1800E4F503004D
:1024000004000000A81A18005CEA010004000000A3
:10241000B01A1800D037040004000000B81A1800E1
:10242000EC37040004000000C01A1800E43904006E
:1024300004000000C81A18008C42040004000000C8
:10244000D01A1800B044040004000000D81A180084
:10245000844B040004000000E01A1800AC4D040096
:1024600004000000E81A18002457040004000000CB
:10247000F01A1800A05C040004000000F81A18000C
:10248000945D040004000000001B1800D05D0400EF
:1024900004000000081B1800685E0400040000002F
:1024A000101B18007062040004000000181B1800C4
:1024B0002464040004000000201B1800B0EF010099
:1024C00004000000281B1800B86C04000400000081
:1024D000301B1800B470040004000000381B180002
:1024E0000072040004000000401B1800F072040099
:1024F00004000000481B1800687604000400000077
:10250000501B1800D877040004000000581B180066
:10251000447A040004000000601B1800E47D0400FD
:1025200004000000681B1800B87F040004000000CD
:10253000701B18008C83040004000000781B180036
:10254000A8FB030004000000801B1800249F040067
:1025500004000000881B180050DC04000400000088
:10256000901B180044E6040004000000981B1800AB
:10257000F4E9040004000000A01B180050EF040060
:1025800004000000A81B1800B86404000400000048
:10259000B01B1800B8F0040004000000B81B1800BD
:1025A0001C0F050004000000C01B1800D811050016
:1025B00004000000C81B1800BC190500040000003E
:1025C000D01B18000C1A050004000000D81B1800CE
:1025D000D4FA010004000000E01B1800A0FD010077
:1025E00004000000E81B180004480200040000007A
:1025F000F01B1800E84B050004000000F81B180051
:102600007CF1040004000000001C1800908C040001
:1026100004000000081C18004C26050004000000FF
:10262000101C18008426050004000000181C180067
:10263000BC59020004000000201C1800E4F2040051
:1026400004000000281C18008C5F02000400000039
:10265000301C18001060020004000000381C180034
:1026600004FA040004000000401C180090640200FA
:1026700004000000481C1800C464020004000000AC
:10268000501C18002865020004000000581C1800A7
:102690009465020004000000601C180078690200C4
:1026A00004000000681C1800ACAA0600040000002A
:1026B000701C1800D46C020004000000781C180084
:1026C0009403040004000000801C1800D05605008C
:1026D00004000000881C1800905B05000400000046
:1026E000901C18007470020004000000981C180070
:1026F000907D050004000000A01C180008D605000D
:1027000004000000A81C180050D6050004000000BA
:10271000B01C1800EC77020004000000B81C180080
:10272000B4F8050004000000C01C1800E0F9050022
:1027300004000000C81C1800081006000400000077
:10274000D01C18002C86020004000000D81C1800C1
:10275000A086020004000000E01C18008087020030
:1027600004000000E81C180040890200040000007A
:10277000F01C18000828060004000000F81C1800CF
:102780009C2B060004000000001D1800808A020037
:1027900004000000081D1800C431060004000000F9
:1027A000101D1800DC8C020004000000181D180029
:1027B000D88D020004000000201D1800CC3906004E
:1027C00004000000281D1800181B0500040000006C
:1027D000301D18001496030004000000381D180076
:1027E000A000050004000000401D18000C0E0400AD
:1027F00004000000481D1800D0110400040000006F
:10280000501D18000413040004000000581D180097
:102810005015040004000000601D1800349C0600E0
:1028200004000000681D1800A095060004000000C8
:10283000701D1800B8A6060004000000781D1800DE
:10284000C0AE060004000000801D1800CCB00600D9
:1028500004000000881D18002898020004000000F1
:10286000901D180080BE060004000000981D18008E
:1028700018BF060004000000A01D1800CCB406001C
:1028800004000000A81D18006CBC06000400000035
:10289000B01D1800B01C050004000000B81D180091
:1028A000049B020004000000C01D1800709F02007D
:1028B00004000000C81D1800C0A1020004000000B0
:1028C000D01D1800DCE0020004000000D81D180034
:1028D000BCA7020004000000E01D180048A8020088
:1028E00004000000E81D180034AD020004000000E0
:1028F000F01D180064AE020004000000F81D18006E
:10290000A8FD060004000000001E180094AF02009D
:1029100004000000081E1800B4B00200040000000B
:10292000101E180078B1020004000000181E1800E4
:10293000EC17040004000000201E180010B902006B
:1029400004000000281E1800B0BE020004000000B1
:10295000301E1800A4E0060004000000381E180015
:10296000A4E4060004000000401E1800D4F3060092
:1029700004000000481E1800BCFA06000400000015
:10298000501E180010FC060004000000581E18001D
:10299000680C070004000000601E180094C10200CB
:1029A00004000000681E18007CC202000400000041
:1029B000701E180028CA020004000000781E1800CB
:1029C000A4B0070004000000801E180028B507000E
:1029D00004000000881E180020BB0700040000004F
:1029E000901E18007CCE020004000000981E180003
:1029F0004CD2060004000000A01E180090D406006F
:102A000004000000A81E18000000000000000000E4
:102A10002DE81FC0AFF31F8101B400B586B0FFB42D
:102A200080EA000000F1010000F063B82DE81FC04B
:102A3000AFF31F8101B400B586B0FFB480EA000097
:102A400000F1020000F055B8F54681B0EE462DE8E1
:102A50001FC0AFF31F8101B400B586B0FFB480EA98
:102A6000000000F1030000F044B8F54682B0EE46E5
:102A70002DE81FC0AFF31F8101B400B586B0FFB4CD
:102A800080EA000000F1040000F033B8F54681B0A0
:102A9000EE462DE81FC0AFF31F8101B400B586B02C
:102AA000FFB480EA000000F1050000F022B8F5460E
:102AB00081B0EE462DE81FC0AFF37F8701B400B5AB
:102AC00086B0FFB480EA000000F1060000F011B803
:102AD000F54681B0EE462DE81FC0AFF37F8701B405
:102AE00000B586B0FFB480EA000000F1070000F0F6
:102AF00000B86C4604F140040ACCEFF300820FB436
:102B0000A4F10C04216003F040016F4607F158075F
:102B100066465D4654464B46424612B0FCB48CB005
:102B2000062802D1402900D061B60A4C2468002C46
:102B3000FED06846A04773B60CB07FBC804689467D
:102B400092469B46A446B6468FB0FFBC08B0BDE98E
:102B500000C00000DCE31D0062B6704764B6704739
:102B600061B6704772B6704772B6704719EE1C1F97
:102B7000044A41EA020109EE1C1F034909EE3C1F09
:102B800070470000010000000000008019EE1D0FDA
:102B9000704715EE100F704716EE100F704715EEC8
:102BA000300F704716EE500F70470000024A116850
:102BB0001060084670470000DCE31D00024A1168FF
:102BC000106008467047000084E41D003A48016820
:102BD0003A4A02EA01023A4941580A68394B03EA83
:102BE00002030F2B00F00580012B03D001F104013B
:102BF000F3E7FEE701F10801334B03EA0203334C2C
:102C0000A342EAD100F046F9804600F053F981462C
:102C100049462F4BCB5800F0EBF87946B14240F1D2
:102C2000028000F093F940462A49086048462A4944
:102C3000086000F0DDF829490D6029490E60294936
:102C40000F603D46284829494FF0000204C08142E8
:102C5000FCD8A5F10405AD46009D6FEA05044FF0D0
:102C6000100365FA03F5AC4240F017804FEA1444B4
:102C70004FEA84041E4D2C606B46A3EB04031D4EEB
:102C80001D4D2E60002C00F008801A4D05EB040647
:102C900080CB80C5AE423FF7FBAF81B068464FEABC
:102CA00010104FEA0010854600F062F8134886467F
:102CB000134C2047FEE7000000000018F8FF00005A
:102CC000FC0000000F00000000FF0F00003E0800A5
:102CD00008040000E4E31D00E8E31D00F4E31D0028
:102CE000F8E31D00FCE31D007CF11D00ACF91D00A4
:102CF00010E41D00D8301F0004E41D00B42C18009F
:102D0000078B180011EE100F20F00100BFF34F8F5A
:102D1000BFF36F8F01EE100FBFF34F8FBFF36F8FB5
:102D2000704700BF11EE100F40F00100BFF34F8F4E
:102D3000BFF36F8F01EE100FBFF34F8FBFF36F8F95
:102D400000BF704700BF2DE90140FFF7DBFF01BC6A
:102D500006EE120F06EE111F42F0010206EE512F91
:102D600006EE913FFFF7DEFF5DF804FB00BF0000B9
:102D70004DF804ED10EE900FC0F30721002900F08C
:102D80001980FFF7BFFF174C80EA00000ECC002926
:102D900000F00B8006EE120F06EE511F06EE112F0B
:102DA00006EE913F00F10100F0E7002800F00280FC
:102DB000FFF7B8FF5DF804FB00BF00BFAFF3008072
:102DC0003F00000000000000050300003700000085
:102DD000000000000F0300000000000000000000E1
:102DE00000000000C02D1800AFF30080AFF300809A
:102DF00041464A681346204C03EA04034FEA131382
:102E00001E4C02EA040216461A441D484FF0000503
:102E100008644B6C1B4C03EA040303F101031A4CD6
:102E20001B4603FB04F31D4400F101009042EFDB5D
:102E3000002D3FF4DEAE154D414632464FF0000600
:102E40000F4808644B6C0F4C03EA040303F10103C1
:102E50000D4C1B4603FB04F31E4400F1010090429D
:102E6000EFDB19EE112F0A4902EA0102A2EB06027A
:102E700005EB020716467047F00000000F00000047
:102E8000000000003F0000000020000000000C00D7
:102E900000F0FFFF0868054A01F1040102EA0002A0
:102EA000052AF7D1024A00EA020070470F0000002D
:102EB00000F0FFFF0868074A01F1040102EA00027E
:102EC000052AF7D1044A1042F4D0044A00EA02006D
:102ED000704700000F0000008000000000F0FFFFBE
:102EE0000C490D4A0D4B0E4C0E4D0F4E0F4F104816
:102EF0008046104881461048824610488346104854
:102F000084461048104886464FF00000B0FBF0F0B1
:102F1000056070470101010102020202030303037D
:102F20000404040405050505060606060707070749
:102F300008080808090909090A0A0A0A0B0B0B0BF9
:102F40000C0C0C0C0D0D0D0D0E0E0E0EFEE7000000
:102F5000004870477CF11D0000487047ECF11D00EF
:102F60000048704714F21D000048704704F21D002D
:102F70000048704774F21D0000487047B8F11D000A
:102F8000074B002282611B681A680AB9586005E085
:102F900019B95A689061586070478261186070472B
:102FA000F4F11D0008B5827A084B42F001028272EA
:102FB0001A6822B153682BB19168984708BD4FF049
:102FC000FF3008BD4FF0FF3008BD00BF8CF21D0080
:102FD000074B1B68186850B15A6890424FF00002C6
:102FE00002D11A605A607047816919608261704726
:102FF000F4F11D00054B1B68186830B182691A6036
:103000001A89013A1A81002383617047C8F11D00B3
:10301000094B1B681A680AB9586005E019B95A6863
:103020001061586001E0026118605A8901325A81CA
:1030300000225B681A617047CCF11D00094B1B68C8
:10304000186868B15A6890425A8903D10021196002
:10305000596001E001691960013A5A810023036156
:10306000704700BFCCF11D0038B5094B1C22002170
:1030700005461C687FF676FF2389226812B96560D1
:10308000256002E06268956165600133238138BD87
:10309000C8F11D0007F0B3BD01232DE9F74F8B40A8
:1030A000B3F5001F28BF4FF40013042B38BF0423CF
:1030B0000330019320F00304FFF74EFF364B00224C
:1030C0001546D3F800B09446134622E0D1F800A08C
:1030D000A2451DD301F10807019E07EB0A08C6F1BE
:1030E0000009C4EB080609EA0606BE4210D3C7EB86
:1030F0000609B9F1070F01D8BE4209D1C4EB0A078E
:103100005F4505D2424635466FB1BB4684460B4605
:10311000084641680029D9D13BB9204A18461168B0
:103120000131116036E084460B46521B111B1029F9
:1031300009D918682A19401A08391860295159689C
:1031400051605A6022461968891A03D15A68CCF82E
:1031500004200CE0072905D8104B00201A68013222
:103160001A6017E05A50A1F108021A605B180C4867
:10317000002219685A6002688A18026009480168CA
:10318000083101608918084A1068814203F108007B
:1031900088BF1160BDE8FE8F2C10180028101800A1
:1031A0004C1018007410180000F21D0038B5194BAF
:1031B000054650F8082CA0F1080419688A1A1A600C
:1031C000154B1A68083A1A60FFF7C6FE02E0A342E0
:1031D00003D218464368002BF9D155F8082CA918DA
:1031E0008B4205D119685B685218083245F8082CE3
:1031F0006360036803F108028218A24207D155F800
:10320000082C9B18083303606368436000E0446047
:10321000002038BD4C1018007410180010B50021A3
:10322000044640227FF69EFE104B2360104B6360E5
:10323000104BA360104BE360104B2361104B636194
:10324000104BA361104BE361104B2362104B636280
:10325000104BA362104BE362104B2363104B63636C
:10326000104BA363104BE36310BD00BF00001800B8
:1032700082631D0088631D00CCE31D00D0E31D00A8
:103280007CF11D007CF11D00ACF91D00ACF91D00A6
:10329000480220004802200070E62000D4001800F8
:1032A00000091800000018000000180070B590B068
:1032B0006846FFF7B3FF2A4D2978002935D10898D1
:1032C000099C241A06D022467FF64CFE0898214617
:1032D00084F6FAFE23492246234801247FF668FE3D
:1032E0000022224B1A702C7084F628FE204B19689D
:1032F00031B10B7823B11F4B2246186805F04DFE03
:103300001D4B196831B10B7823B11A4B0122186893
:1033100005F043FE194B1968F1B10B78E3B1154B79
:103320000122186805F039FE16E0154E317899B97A
:103330000A980B9C241A06D022467FF613FE0A98A0
:10334000214684F6C1FE084822460E497FF630FE2B
:1033500000232B700123337084F6F0FD10B070BD94
:1033600084F21D00584608001F6E1D0010F21D005B
:10337000701018001CF21D0088F21D0080F21D0064
:1033800028F21D000E920800014B1868704700BF1C
:10339000F4E31D00014B1868704700BFF8E31D00FF
:1033A00008B5836A33B10023836280F8203010307F
:1033B00084F6B6FE012008BD38B5034C256800F040
:1033C0005FFD4019206038BD90F21D0070B50124EA
:1033D000FFF7F2FF064612E01B4B1C6809E0E368AA
:1033E0001D4205D025EA030563680BB1A068984724
:1033F00024680DB1002CF2D184F60CFE0446134B68
:1034000018688AF681FD124B1D680540E4D1002C36
:10341000E2D1104D2B6823B11B6813B1586885F6B3
:10342000ABF9FFF7C9FF0C4B5A68921B12185A6090
:103430005A6901325A612B6823B11B6813B15B686A
:10344000002BC5D070BD00BF6C10180034101800E0
:103450004810180060101800D0F11D00024B1A68C7
:1034600001321A60704700BF20F21D00014B18683E
:10347000704700BF20F21D002DE9F04F9DB00AA853
:10348000FFF7CCFEFFF780FF924EDFF8A882DFF84F
:10349000A8A2914F0446FFF77DFF0A9B0B9A0F9954
:1034A000D21A0E9B0D9DC3EB01091199109BCB1AEB
:1034B0000C99C1EB050B93443268D8F8001002F563
:1034C0000052521A4A44D2185A441419DAF80050D9
:1034D000241882480994824C2268AD183A680893EF
:1034E000C5EB020CCDF81CC07FF662FD089B09F508
:1034F0007E710193073103F57E7307330BF57E72FE
:103500009B0A890A073202930823920A00915946BE
:1035100003934B4673487FF64BFD33682068DDF814
:103520001CC03968019000F57E70039303F57E732B
:103530000CF57E760730073301F57E720736800A78
:103540009B0A0732B60A920A0290049363466648C1
:1035500000967FF62DFD099905F57E72073201F57B
:103560007E730733920A9B0A294600934646099BBD
:103570005E487FF61DFD5E4B5E4F5F4819687FF623
:1035800017FD39685D4B0A689A4203D05C487FF6A4
:103590000FFD25E01A910B4604E01568131D5748EE
:1035A000854203D11A461BAB9A42F6D31AAD336853
:1035B00000932B4653481A927FF6FAFC3B681A9AFE
:1035C000E91AD31A50480A4600937FF6F1FC336893
:1035D0001A9A591B9B1A4D480A4600937FF6E8FC3D
:1035E0004B4B1B68C3B11D78CDB15989DD8901FBF7
:1035F00005F61A8938354D4306F57E73073345487D
:103600009B128DE8280005F57E7307339B12029309
:1036100033467FF6CDFC03E01D461E4600E02E46F5
:103620003D4B1A68C2B11378B3B15189D08901FBFF
:1036300000F31289583048432D18019000F57E7030
:1036400003F57E77073007378012BF120290F61815
:10365000324800977FF6ACFC314B1A6852B31378AE
:1036600043B35189D08901FB00F312895830484394
:103670002D18019000F57E7003F57E77073007372F
:103680008012BF120290F618264800977FF690FC31
:103690002368DAF80020991B9B185B1B03F57E70EA
:1036A000073001F57E72800A07320090920A1E48A8
:1036B0007FF67EFC1D4B1D6884F63CFE0446FFF73A
:1036C000D5FE29462246034619487FF671FC1DB0F7
:1036D000BDE8F08F00F21D002C101800526E1D0086
:1036E0004C101800616E1D00A06E1D00E56E1D00DF
:1036F00028101800C4F11D00206F1D004B415453C9
:103700003B6F1D005F6F1D00966F1D00BB6F1D009E
:1037100070101800E16F1D0088F21D000E701D0072
:1037200080F21D0040701D0075701D0038101800DB
:103730009F701D000CF21D007410180008B5714632
:1037400003487FF635FC0120BDE8084000F0AEBB21
:10375000C7701D00084B00211A6802605A68426059
:103760009A688260DA68C2601A6902615A694261C5
:1037700018461C227FF6F6BBD0F11D00014B0360FA
:10378000704700BF98F21D0038B50D460446FFF79C
:10379000E7FB0168034631B105485A687FF608FC2B
:1037A0004FF0FF3038BD80E83000084638BD00BF1C
:1037B000D6701D0010B50C46FFF7D2FB036813B19D
:1037C000406821469847002010BD38B504460D4694
:1037D000FFF7CAFB03681BB980E83000184638BD04
:1037E0004FF0FF3038BD10B50446FFF7BDFB03684E
:1037F00013B1406821469847002010BD38B50446F3
:103800000D46FFF7B5FB03681BB980E8300018468A
:1038100038BD4FF0FF3038BD10B50446FFF7A8FBA8
:10382000036813B1406821469847002010BD38B5A1
:1038300004460D46FFF7A0FB03681BB980E8300083
:10384000184638BD4FF0FF3038BD38B505460C4638
:10385000FFF792FB03681BB1406829462246984750
:10386000002038BD024B1B680BB15860996070474F
:103870008CF21D00034B1B681868D0F1010038BFA3
:1038800000207047F4F11D0010B50446FFF7F2FF69
:1038900018B12046FFF786FB28B120460021BDE87D
:1038A0001040FFF76DBB10BDF8B506460768FFF77F
:1038B000A1FB0546002853D02B4B1B68186805F068
:1038C00026FB044688B984F60FFDB0F5804F08D971
:1038D000264B22464FF4F061186806F07FFF04463D
:1038E00018B92846FFF7C0FB13E07B6C08200021C5
:1038F00023F000436B601E4B2B61FFF7CDFB58B9E3
:103900002846FFF7B1FB194B21460122186806F043
:1039100093FF6FF01A00F8BDB368B7F85020A168A4
:103920000360F3684360B6F90630D21AB388CB1847
:10393000686100212A81A281FA7CA360E274B6F951
:103940000620EB603B6CD31822462B60094B1868AD
:1039500080F64AFC2846A761FFF796FF0020F8BDD5
:103960006FF01500F8BD00BF8CF21D001CF21D00A9
:10397000F139180024F21D0010B50BE0FFF728FB09
:103980000446FFF70FFB28B120460121BDE8104097
:10399000FFF7F6BAFFF76EFF0028EFD010BD00006A
:1039A000034B1B681B680BB1FFF7E6BF704700BFF6
:1039B000F4F11D000D4B70B51C6811E0FFF73EFBE4
:1039C0000646FFF771FF051E0ADA15F1160F14BF40
:1039D0000125022530460121FFF71AFB257270BD33
:1039E0002368002BEAD1237270BD00BFCCF11D000B
:1039F0002DE9F843064640690D4690E89000FFF730
:103A0000D5FB0F4B0021186880F678FB8046A0B1EB
:103A10000023D0F8189083613046FFF725FB24B1CE
:103A2000404649463A462B46A047064B1B681B7A40
:103A30001BB1BDE8F843FFF7BDBFBDE8F88300BF89
:103A400024F21D00CCF11D0070B5164D04462E4623
:103A50002B685B897F2B05D9FFF7ACFF2B685B894F
:103A60007F2B1CD833680F4D1B6893B92046FFF796
:103A70001BFF10F1160F05D098B11B3006D12B6833
:103A8000012201E02B6802221A7202E006487FF64A
:103A90008FFA20460021FFF7BBFA002070BD4FF0DF
:103AA000FF3070BDCCF11D0017711D00034B1B686A
:103AB0001B7A0BB1FFF77EBF704700BFCCF11D0032
:103AC000014B83E803007047F8F11D00034A08B575
:103AD00013680BB15068984708BD00BFF8F11D008E
:103AE00000487047ECF21D0038B504460D46FFF75C
:103AF000F7FF80E8300038BD2DE9F34107460C465A
:103B000084F618FC10B9FFF7A9FC3AE0002620461D
:103B10000DF106016A46ADF8066007F1030800964C
:103B200084F6B8FF009D28F0030840F638034544AA
:103B30009D4226D82DB328463146FFF7ADFA0446FC
:103B4000F8B13146009A7FF60DFA009BA781204616
:103B5000ED1AE218C8EB050802EB0803013DA3606B
:103B6000636862F3140363601B0C65F34F13E38017
:103B700084F6CAFB0123A3702080BDF80630E381E0
:103B800004E0044B00241A6801321A602046BDE8A4
:103B9000FC8100BFE8F21D0038B500210546808990
:103BA000FFF7AAFF044620B18068AA89A9687FF6BA
:103BB00055F9204638BD000038B5058A4268012312
:103BC0000446C2F314028370C38802EB5312836865
:103BD0000132C81CA18100215B0D5B05D218074B87
:103BE0000340D31A04F11000A360E38903F40C53DB
:103BF0002822E3817FF6B6F9258238BDFCFF01005B
:103C000038B50446E389590621D4A278013AD2B2E4
:103C1000A270002A27D1E27862B1134B204653F8F4
:103C20002250E989FFF7C8FF21462846BDE8384001
:103C300005F0A0B9DA0516D40C4B2046A360218804
:103C400084F67EFB2046BDE83840FFF7AFBA074B4D
:103C50002046A3602188A56B84F672FB2046FFF7FF
:103C6000A5FA2C46CEE738BDCCF31D00EFBEADDE85
:103C700038B504461DE0104BA28A1B6853F8225049
:103C80000E4A13682BB100215068A1822146984743
:103C900070B90B4B1B6843B10A4AE1781B6852F8B4
:103CA00021209A4201D1FFF701FF2046FFF7A8FF2C
:103CB0002C46002CDFD138BD20101800ECF21D007E
:103CC0008CF21D00CCF31D00374B70B51C682668C4
:103CD00076B1A3190025A6611D776319187F0135F8
:103CE00084F6ACFEB542F8D10A2084F6A7FE47E080
:103CF000D4F89C00002856D0022184F6FDFD00F087
:103D00000F0001284FD0022802D1204684F600FE81
:103D10000521D4F89C0084F6EFFDC20743D5D4F802
:103D20009C00002184F6E8FDD4F8AC3005461BB1B8
:103D3000D4F8A800E9B298470D2D10D0082D01D075
:103D40007F2D0DD1A369002B2DD0013B0820A3614D
:103D500084F674FE202084F671FE08201FE00A25F8
:103D6000284684F66BFEA6690A2D04EB060305D0EF
:103D700001367F2E1D77A66102D870BD00221A770A
:103D80007F2EA66104D804F11C00314684F62AFE79
:103D900000233E20A361236084F650FE2020BDE86E
:103DA000704084F64BBE70BD781018002C4B70B577
:103DB0001B68002B51D02B4A106800284ED05C693C
:103DC000222C07DDDA69510604D5274A126802F56C
:103DD000C26201E000F5C2620432222C116807DDE4
:103DE000DA69520604D5204A126802F5C26201E07F
:103DF00000F5C2620432126891420AD0222C04DD1E
:103E0000DB69590644BF184B186800F5C2600430DE
:103E10000168164B1868081A20D019601449D1E9B6
:103E20000023121843F100030126C1E90023114BBE
:103E300011491C68D1E90023E4FB00230F48046802
:103E4000203C33FA04F016FA04F4661E002403EA58
:103E500006051443C1E9004570BD184670BD00BF9A
:103E6000341018004010180064101800AC1018002E
:103E7000A0101800DC0F1800B0101800E00F180098
:103E800008B5FEF783FE074B07491A680968801AD0
:103E9000884205D3B0FBF1F001FB00221A6008BD97
:103EA000002008BD08F31D00F00F180010B50446EF
:103EB00084F66AFD0CB100231B60064B00211868D4
:103EC00082F656FE044B1B6803B1984784F65CFDEE
:103ED000FEE700BF34101800901018002DE9FF47CE
:103EE0004B4B0446D8620368042B03D1494B186836
:103EF00089F6A8FD2368062B04D104B0BDE8F0477D
:103F0000FFF764BA444B454E656C1B68F169326833
:103F1000C5EB030A42487FF64BF8A36C0093224698
:103F2000636C4FEA9A0A0193A3680293E3680393D0
:103F30003C48E36C21687FF63BF82368042B07D1EB
:103F4000FEF727FE0746FEF727FE0246364808E042
:103F5000032B09D1FEF723FE0746FEF723FE024698
:103F6000324839467FF624F8E36904F110010093E2
:103F70000027236AB9460193B846636A0293A36A8D
:103F800003932B480EC97FF613F8A36B04F12C01A1
:103F90000093E36B0193236C029326480EC97FF6CE
:103FA00007F8EB680093244895E80E007FF600F8C8
:103FB00005F11001EB69009320480EC97EF6F8FF69
:103FC00018E07A59D3070FD5FF2A0DD91C4B9A4216
:103FD00004D902F16243B3F5801F05D81948394668
:103FE0007EF6E6FF09F101090437B9F10F0F08F178
:103FF000010801D8D045E4D13368002043F4806340
:1040000086E8180004B0BDE8F047FFF74FBF00BFD7
:104010002CF21D0034101800FCE31D0098F21D0066
:1040200050711D0066711D009B711D00AF711D0058
:10403000C3711D00F6711D0025721D0043721D0025
:1040400082631D0061721D002DE9F34198461B4BF0
:104050000D46064614461F681948BF1A7EF6A8FF8B
:1040600031462A46174800252346CDF80080BF0870
:104070007EF69EFFA8462E4617E02A59D1070FD597
:10408000FF2A0DD9104B9A4204D902F16243B3F5CD
:10409000801F05D80D4829467EF68AFF08F10108E1
:1040A00001360435B8F10F0F01D8BE42E5D100202A
:1040B00002B0BDE8F041FFF7F9BE00BFFCE31D0010
:1040C0006D721D0085721D0082631D0061721D00EE
:1040D000014B1868704700BF00E41D008842F0B52E
:1040E0001DD8E2B1F3B10D1A002400E001346D08CF
:1040F000FCD10127013817FA04F6C6F1000C351877
:104100000CEA0505AE198E4205D9013C17FA04F1F7
:104110004D4208180540156000201C60F0BD4FF0AE
:10412000FF30F0BD4FF0FF30F0BD072870B50FD85D
:10413000151F1B2D0CD80126551C16FA05F5013D3F
:1041400015EA010407D1B240FEF7FDFD204670BD1F
:104150004FF0FF3070BD4FF0FF3070BD40F64402AD
:104160004369C3F82021094AC3F8242140F64802D4
:10417000C3F82021064AC3F8242140F64C02C3F8B4
:104180002021044AC3F82421704700BF3C883C88A2
:10419000648864880390039070B504689CB1468974
:1041A0000589AE4211D2256805600D684968A56091
:1041B000E160A38243682360438901332261446044
:1041C0004381002070BD072070BD072070BD08B579
:1041D0000B46104610315A681B89FFF7DDFFC0B24D
:1041E00008BD00F58053DB6ADA0105D5436900F5A7
:1041F0008C50C26AC3F8A82170474FF0FF32436960
:104200001A62C3F89021C3F89821C3F8A42170471B
:104210004FF4807243699A6270470000024B1A683B
:1042200001321A60704700BF98E41D0003685A69A4
:1042300003F58C531B7FC2F8A031704700207047F4
:1042400043691A6842F010021A604FF40062C3F822
:104250002021D3F8242122F08072C3F82421704752
:104260007FB52B4B04460D4604AE0FCB06E90F007D
:1042700004F58C5393F83130002B47D1E5B96369CD
:104280004FF41372C3F82021D3F8242102F0030362
:1042900006EB830353F8103C591C37D0D208534324
:1042A000192205335A43B2F5005F2FD2B2F5806F61
:1042B00004D3D208012501E01D469622636941F628
:1042C000140102F03F00C3F820119209D3F8241121
:1042D000520121F07C5121F4F07142EA0062C3F8EE
:1042E0002411D3F824110A43C3F8242141F61802FB
:1042F000C3F82021D3F8242122F48002C3F824211A
:10430000D3F8242142EA8555C3F824517FBD00BF6C
:1043100088631D00436941F61402C3F82021D3F8D5
:10432000242142F01F02C3F82421704700F5C45332
:10433000F0B55D6A1C24544300F5C6562B19CB60BA
:1043400096F831600EB9184E00E0184EB65C1A6946
:104350004A6017680F6011600A6851605A7D1961E0
:1043600002BB00F5C452926A0CE000F5C65191F808
:104370003170117D0FB90C4F00E00C4F795CB142E8
:1043800005D3126800F5C45128318A42EDD10121CC
:10439000597530215268D9825A60116829511360C9
:1043A0002A595360F0BD00BFA4751D009C751D0007
:1043B00070470020704700F5C4539B6A07E09A6875
:1043C00000E0126803F108018A42FAD11B6800F587
:1043D000C45228329342F2D1002070474369B4227C
:1043E000C3F82021D3F8243103F4E0431B0B032B43
:1043F0009ABF024AD05C0620704700BFD7721D00EA
:1044000000F5C7531A68012A05D198214369C3F8FA
:104410002011C3F82421704770B500F59455044667
:104420000E46A86A02F0EFFA014630B904F5C65408
:10443000A3691A8801321A8070BD04F58A531B6B78
:104440009A680023837043700A20087050684B817B
:104450009368CB60AB6A486020460E819A68D28828
:10446000BDE8704003F0A9B82DE9F04700F5945875
:1044700004469946D8F828000D46164602F0C3FABD
:104480000021182207467EF66DFD01233E8120465D
:104490003B703946D8F828307D81C7F804909A6877
:1044A000D288BDE8F04703F088B82DE9F041069DB9
:1044B00004460E4628461746984602F0A4FA0146DE
:1044C000B0B10E2380F801800370002346600381A1
:1044D0000223878143812046AB68DA882B4603F0AC
:1044E0006CF800280CBF4FF0FF300020BDE8F081D1
:1044F0004FF0FF30BDE8F0812DE9F04700F594580A
:1045000004469946D8F828000E46154602F07BFA74
:104510000021182207467EF625FD0223BE81204693
:104520003B703946D8F828303D81A7F80A909A6840
:10453000D288BDE8F04703F040B8CB6830B51A69BF
:104540000C688A424A6808BF1A6114600C6862608D
:104550001A4652F8084F944207D15A681D681560F0
:104560001D686A6000221C615A7500F5C550002361
:1045700000688B60CB60BDE8304004F0A9BE38B560
:104580000C4649B938BD0C2303FB05430135EDB298
:10459000586A06F01FF900E000252378AB42F2D8F4
:1045A0002046BDE8384006F015B970B50446486CA1
:1045B0000D4608B106F00EF9286C08B106F00AF9AC
:1045C000686D08B106F006F9A86D78B106F002F939
:1045D00004F5C65494F82D60013EF6B284F82D60BF
:1045E00026B9A06AFEF7DCFE84F82C6000236B6518
:1045F0006B642B64AB6570BD70B50C4651B1002582
:104600000D704D830D83FFF7D0FF2369E57784F8A4
:1046100052501D6070BD00000F4B70B599420C46A2
:10462000164612D8022A13D800F58C556B7F13B1A9
:10463000A869FEF7B5FE01232E7721466B7700228D
:10464000A86983F62FFD002070BD6FF01C0070BDBF
:104650006FF01C0070BD00BF8096980000F58C5371
:1046600070B55B6A04460E46CBB11B6843B90CE0DB
:104670000A2084F64DF804F58C535B6A1B6800E051
:104680006525013D01D0002BF2D104F58C521E436B
:104690002046526A1660BDE87040FFF7B9BD70BD94
:1046A00070B500F58C5393F828308B4205460C46C4
:1046B00026D009B9FFF7D4FD022C6B69C3F8A041DD
:1046C0001AD103E00A2084F623F800E00B266B6978
:1046D000D3F8A02102F44072B2F5007F01D0013E70
:1046E000F0D1D3F8A03103F44073B3F5007F03D1C8
:1046F00028460121FFF7B4FD05F58C5585F82840C3
:1047000070BD436970B5D4260446C3F82061D3F860
:1047100024516B0518D5FFF721FD6369C3F82061AB
:104720000221C3F824512046FFF7BAFF4FF47A70F4
:1047300083F6EEFF20460021FFF7B2FF4FF47A70B8
:10474000BDE8704083F6E4BF70BD000010B50446BC
:1047500004F5C6540C487EF62BFC0C48A369198856
:104760007EF626FCA3690A4859887EF621FCA369D7
:10477000084899887EF61CFCA3690748D988BDE8DB
:1047800010407EF615BC00BFDB721D0003731D00D8
:104790001A731D002D731D003E731D0038B544684B
:1047A000054674B1236818224360084621467EF608
:1047B00055FB2B6823606B89013B2C6001206B81CA
:1047C00038BD204638BD2DE9F04100F5C056A2B0F5
:1047D00004460D46D6F8228083F652FE04F5C457EF
:1047E0007B69C3EB08088044C6F8228083F648FE44
:1047F00004F5C25240F684217861C2F8160002A87E
:1048000063698424C3F82011D3F82411C6F82E104C
:1048100040F68821C3F82011D3F82411C6F83210CD
:1048200040F68C21C3F82011D3F82411C6F83610B5
:104830004FF42961C3F82011D3F82411C6F83A10B7
:1048400040F69421C3F82011D3F82411C6F83E1085
:1048500040F69821C3F82011D3F82411C2F80210B1
:1048600040F69C21C3F82011D3F82411C2F8061099
:104870004FF42A61C3F82011D3F82411C2F80A10AA
:1048800040F6A421C3F82011D3F82411C2F80E1069
:1048900040F6A821C3F8201106F11201D3F8243103
:1048A000C2F8123006238022ADF80430ADF806407D
:1048B0007EF6D4FA284601A922467EF6CFFA204693
:1048C00022B0BDE8F0817FB52A3001A97EF636FE20
:1048D000002007B000BD00F5C45370B5064686B091
:1048E0009C6A0CE0A56805E0A86801A92A307EF65C
:1048F00025FE2D6804F108039D42F5D1246806F5D4
:10490000C45328339C42EDD1002006B070BDF0B5F1
:104910001D4687B00023064604931446059300F510
:10492000C6531F6907B98F686B1E9DF8302030464B
:104930009BB2062B98BF082500232946009302F05E
:1049400047FD636823F00043636006F59453DA691A
:1049500042B106F58A521433506993E806000823E1
:1049600004F0FAFE636806F58A560593236806ACE0
:10497000706944F8083D2B4694E8060004F0ECFE0C
:1049800000950023012505932B4601950295049778
:10499000706994E8060004F025FF284607B0F0BDD2
:1049A00000F594532DE9F0439E6A8BB004463046DF
:1049B0000F4602F028F80546002843D004F5A85811
:1049C000D8F800305B68002B3CD0B96818227EF61E
:1049D00045FABB6802A9B5F80C901833BB60BB89D7
:1049E000183BBB810C232B70D8F80000FFF7D6FED4
:1049F000069B6B60B9F1000F19D0049B2046089309
:104A00003946059B0993BDF81C304B4538BF994684
:104A1000AB894B4504F58A5388BFA5F80C90422218
:104A20009B6A009208AA4B449BB2FFF770FFB368E1
:104A30002046DA882946334602F0BFFD04F5B45417
:104A4000002363720BB0BDE8F08308780128F8B545
:104A50000C46174618D08B689868A8B18D6B002655
:104A60000BE06B78A268D088584305F0A4FE0C23B5
:104A700003FB06530136F6B258622B789E42F0D300
:104A80000120AB70E7632070F8BD2DE9F04F0D46B3
:104A9000C98AA1F1020B8FB01FFA8BFBBBF1270F64
:104AA0000646059100F28E8005F10808404609A9E6
:104AB0007EF644FD06F5A853602202FB0BFBD3F8FB
:104AC00014A01AF80B700AEB0B04002F40F0A3801F
:104AD000EB8B302B079340F0A08005F10E0130697D
:104AE0003A4606916978069B8DE808012B7D029372
:104AF000012303F0D1FD8146023000F09080A88BA5
:104B0000C00805F05BFE606428B1A88BC00805F002
:104B100055FE206430B906F5C6539B691A880132E8
:104B20001A807EE0A88BC00805F048FE606500286A
:104B300077D006F5C553A4F85C70186804F0B9FB8B
:104B4000014600286DD08460E06430462A7DFFF77E
:104B5000EDFB0123A26804F12400059963842184FC
:104B6000E98A1180A98B9180E98BD180296A9160B3
:104B7000696AD1600622069904937EF66FF90622CF
:104B800004F12A0041467EF669F92A7D84F8302036
:104B90006A7884F8312019F4007F049B0AF80B30FE
:104BA000079B6786A38684F81E9009D0022319F418
:104BB000807F84F8363003D0638C43F00403638431
:104BC000002700E0052706F59458D8F8280001F0E2
:104BD0001AFF0446D0B1002118227EF6C3F904233F
:104BE000304623706B78637021466B68ED8A636092
:104BF000D8F82830658127819A68D28802F0DDFCD8
:104C000000280CBF4FF0FF30002001E06FF01A00C9
:104C10000FB0BDE8F08F042704E0032702E001276E
:104C200000E0022730462146FFF7BFFCCBE700F546
:104C3000A853F0B58C1E5B696022A4B285B002FB5C
:104C40000434638C5A0605462AD443F0400304F129
:104C5000240704F12A066384214601F0E3FE94F858
:104C60003110228C0097019694F830300293032380
:104C7000286903F011FD638E93B1286994F831100F
:104C800005F5C655228C95F8315094F830300DB1A9
:104C900043F08003029309230097019603F0FCFC84
:104CA000002005B0F0BD002110B50A460446C068DA
:104CB00004F5805488F622FF0023636310BD00686A
:104CC00002F01FBAF8B5436900F5C055044604F573
:104CD000C456DA6C00F5B4531A61D5F812300133BA
:104CE000C5F8123083F6CCFBB061D5F8227083F69C
:104CF000C7FB73694FF480220621FF1A00233F1877
:104D0000C5F82270E06804F58C547361134605F011
:104D10006AF8E36A23F0080343F00103E362012326
:104D200084F83830F8BD000010B50446C068A168AA
:104D300005F0BBFA074A4FF47A7341F64C01B0FB19
:104D4000F3F3B2FBF3F36269C2F82011C2F8243125
:104D500010BD00BF80841E0010B50421044600234E
:104D60004FF0FF32C06889F61BFC0021E0684FF06D
:104D7000FF320B46BDE8104089F612BC38B5044638
:104D8000A9B1A2B1084604F05FF8094B04F59455A7
:104D90001A6801321A6001236A6A0146204602F04D
:104DA00046FD2046696ABDE8384002F064BC38BD63
:104DB0004CF31D002DE9F84300F5A8534FF06009AE
:104DC000154609FB02F95F690646884607EB0904A8
:104DD0002B46144A601C07217EF62AF9666106F507
:104DE000B45600236A1DE371023507F809302284A6
:104DF000AD00F268A26380222377627784F83630B0
:104E000084F83730E377D8F80420AA18E260D8F89D
:104E1000082084F85130AD1884F850302561BDE881
:104E2000F88300BF57731D0083692DE9F041D3F863
:104E3000308004464FF47060D8F8007005F0BEFC76
:104E400004F5A8535861B8B100265037354604F52B
:104E5000A8532A4620465B69414601359B196036B6
:104E60009F601037FFF7A6FF282DF0D104F5C65438
:104E70000023012084F83130BDE8F08100697047DB
:104E800000F58051436910B5CA6A1C6A22404A6322
:104E900002B11A62110618D5D3F8901100F58A52A2
:104EA000D3F8984101F4EE3104F4EE349161D46109
:104EB00009B1C3F89011D2690AB1C3F8982100F57D
:104EC00080535A6B22F080025A6300F58A5300F532
:104ED00080509969426BDB690A4313430CBF002081
:104EE000012010BD436900F58050D3F89C2122F4C5
:104EF000EE32C3F89C21D3F8942122F4EE32C3F8A9
:104F000094215A6A816A22EA01025A62002383626A
:104F1000704700F58052D36A93624369D3F89411C5
:104F200041F4EE31C3F89411D3F89C1141F4EE3101
:104F3000C3F89C11596A926A0A435A62704700008A
:104F4000436910B51A68044642F441721A6000F5CC
:104F5000C7531A6800F5C6530AB9134A08E0022A73
:104F600002D14FF4003203E0012A02D14FF4407223
:104F7000DA61DA6920460D4B134304F58052D3629F
:104F8000936204F58C538022DA62FFF72AF9084B0A
:104F9000204604F588541A6842F400321A60FFF77C
:104FA000B8FF0123237110BD00030200C0000101FE
:104FB00098F21D002DE9F8430446FFF71EF920463C
:104FC000FFF771FEE06888F6D9FF002852D06369C8
:104FD00004F58A55284E20461A6842F004021A60E9
:104FE000FFF7AEFFD6F85C902869C847D6F808806E
:104FF0002869C047B76D2869B84776682869B047FF
:105000006869C8476869C0476869B8476869B04750
:105010006369204604F5C055D3F8A42104F5C456AD
:1050200042F01002C3F8A42104F58C531122DA6275
:10503000FFF7D7F804F5B45301221A7563691A68AB
:1050400042F004021A60D5F81A300133C5F81A305C
:10505000736953B1D5F8227083F612FA7369FF1A97
:1050600000233F18C5F82270736183F609FA04F52E
:10507000C454E061BDE8F883B8FC0700FFF700BF47
:1050800000F5C25310B5D3F81E400134032AC3F80B
:105090001E4003D14369C3F8481110BD042A04BF60
:1050A0004369C3F84C1110BD70B500F59454254AFE
:1050B0000546616BFFF7C9FC216B234A064628466B
:1050C000FFF7C3FCD6F1010638BF0026A16A002213
:1050D000002808BF46F001062846FFF7B6FC05F594
:1050E000955300221968002808BF46F0010628469B
:1050F000FFF7ABFC616A0022002808BF46F00106FA
:105100002846FFF7A2FC94F83930002814BF304637
:1051100046F00100ABB9AB695A6BE261082A01D9CC
:105120000822E261E2693AB1DA6B9B6BA26100226C
:10513000636105F58A539A6205F59455012385F854
:10514000393070BD6D5F1800457F1800FFF728BC2F
:105150002DE9F04F9A468DB09DF858700023044613
:105160000D4616460A9302E0EA5C12B10133B342DF
:10517000FAD1EA5C002A40F03C8203F101084FB109
:105180000533B34200F232820AA805EB080104227B
:105190007DF664FE05F1040B58468D497DF66EFFE1
:1051A000814650B94FB10A9B662B00D1FEE7632BB5
:1051B00040F02282FDF794FEB8E0584685497DF61E
:1051C0005DFF002800F0F281584683497DF656FFC6
:1051D000002800F0EE81584680497DF64FFF0028F8
:1051E00000F0EA8158467E497DF648FF40B904F553
:1051F0008C5117B10A9B0B6134E02846103120E036
:10520000584678497DF63AFF814618B92046FFF79F
:105210009DFAD3E1584674497DF630FFA8B94FB1E5
:105220000A9B022B01D902230A9363690A9AC3F8E5
:10523000A021D6E16369D3F8A0310CA9284641F832
:10524000083D04227DF60AFEDBE1584667497DF6FB
:1052500015FF48B9002F00F0CF810A99204602229D
:10526000FFF7DAF90746CCE1584661497DF606FFBB
:1052700030B9002F00F0C08120460A990122EFE7E3
:1052800058465C497DF6FAFE30B9002F00F0B48133
:1052900020460A990022E3E7584657497DF6EEFE7C
:1052A00068B90026602000FB0640013600F59450E6
:1052B0003C30FFF77EF8052E0A90F3D152E05846B5
:1052C0004E497DF6DBFE814618B92046FEF7B6FF53
:1052D0005EE058464A497DF6D1FE50B904F5B45413
:1052E0002FB10A9B003318BF01232376BAE7237E30
:1052F000A3E7584643497DF6C1FE50B904F5B454BE
:105300002FB10A9B003318BF0123E375AAE7E37DA1
:1053100093E758463C497DF6B1FE814640B90A986C
:10532000D0F1010038BF0020FEF75DFA4F4668E17A
:10533000584636497DF6A2FE002893D05846344997
:105340007DF69CFE88B906460A9004F5A8535B6971
:1053500098199B5D13B1FFF7B6FA0A906036B6F55F
:10536000706FF2D128460AA938E1584629497DF6DE
:1053700085FE814618B92046FFF7ADFA08E0584689
:1053800025497DF67BFE814650B92046FFF713F88C
:105390000CA9042241F8080D28467DF65FFDC5E7FB
:1053A00058461E497DF66AFE002839D1002F00F0CC
:1053B000238104F5B5531F78002F40F0128104F5C6
:1053C000B45401220A991A70E06982F66BFE18E162
:1053D0005E731D0069731D0077731D0083731D00CC
:1053E0008E731D009D731D00A7731D00B1731D00FA
:1053F000C0731D00CD731D00DB731D00E4731D0021
:10540000F3731D0008741D001D741D002F741D0012
:1054100040741D004C741D005A741D0065741D00FD
:1054200058467A497DF62AFE78B904F5B5531A78BC
:10543000012A4FF000097FF479AF04F5B45483F8E2
:105440000090E069FDF7ACFF70E7584670497DF6C3
:1054500015FE8146002859D1002F3DD004F5C055D6
:1054600005F112064946304680227DF67BFD04F5A3
:10547000C450494614300C227DF674FDD5F8220044
:10548000D5F81280D5F81670D5F81A60D5F81E90A8
:1054900008B982F6F5FF04F5C25401904146CDF8F3
:1054A00000903A46D5F826300293D5F82A30039377
:1054B000D4F81A300493D4F81E300593D4F822306F
:1054C0000693D4F826300793D4F816300893334661
:1054D00050487DF66DFD84E008F102039E42C0F065
:1054E0008280832E40F2828002220DF12E0005EB95
:1054F00008017DF6B3FCBDF82E30062B79D120468D
:105500002946FFF760F9CAF800007AE05846424998
:105510007DF6B4FD78B904F58C5327B10A9A81461B
:1055200083F832204BE093F832302B700123B946D8
:10553000CAF800304BE0584638497DF69FFD70B9F7
:1055400004F5C65117B10A9B4B728BE62846093108
:1055500001227DF683FC0123CAF8003051E0584651
:105560002F497DF68BFD40B904F5C6541FB1BDF837
:105570002830E38576E6E38D5FE6584629497DF6D7
:105580007DFD002838D167B104F5C45303F128022A
:105590009B6A934233D104F5C6540A9B84F8313098
:1055A00060E604F5C65494F8313046E64FF005093C
:1055B00004E04FF0060901E04FF007093FB109F59B
:1055C000886909F102090A9B44F8293009E009F5C4
:1055D000886909F10209284604EB890104227DF655
:1055E0003DFC00270DE04FF0FF370AE06FF00D079C
:1055F00007E06FF0010704E06FF0160701E06FF0BD
:105600000F0738460DB0BDE8F08F00BF71741D0064
:10561000765F09007C741D0034751D003F751D0008
:1056200046751D0050751D0000F594532DE9F0439B
:105630008E8991F813909F6A083E8B688DB0B6B240
:1056400008338E8104468B6000F5A6530D4604A9ED
:10565000D86BFFF7A3F8014680B1069BBDF8242064
:1056600096420A93079B0B93DDF8208014D93146AC
:1056700016487DF69DFCBDF824600DE0204607220B
:105680004FF0FF33FEF7F0FEA0682946012205F037
:10569000D3F84FF0FF3015E004F58A530022294675
:1056A0009B6A204600920192F31841229BB202921B
:1056B0000AAA01F09DFE2046414632464B4600971D
:1056C000FEF7F3FE0DB0BDE8F08300BF5C751D0072
:1056D000F8B500F58C5393F831300446002B35D0E3
:1056E00000F58E531B7A002B30D0194E00F58A55E9
:1056F000376D2869B84748BBD6F8A4602869B04719
:1057000020BB6869B84708BB6869B047F0B904F5C1
:105710009453596A8B6B5B6913B1204601F0ABFF60
:1057200004F5955319688B6B5B6913B1204602F041
:10573000CBF920460121FEF791FF04F58E5300229C
:1057400004F58C541A72012384F83930F8BD00BF77
:10575000B8FC070070B504460020FEF744F8204668
:105760000021FEF77DFD04F58C55012304F58E52D2
:1057700085F8313004F5B456137296F83C302BB1ED
:10578000B06BFDF70DFE002386F83C30EB6A204637
:1057900043F0080323F00103EB62FEF722FD2046ED
:1057A000BDE87040FFF794BF38B500F58D5304464F
:1057B0001B685BB31D684DB300221A60EB0701D56F
:1057C000FFF7C8FF002D01DA83F6DAF804F5C752B7
:1057D0001368DBB904F58053596B04F5C65311F413
:1057E000003F04D0022111604FF4003206E011F4B2
:1057F000407F04D0012111604FF44072DA61DA6910
:1058000004F58054024B1343E362A36238BD00BF2A
:10581000C00001010A4600F58C5393F83010FF29AF
:1058200002D0C06805F09BB9C368DB68082B07D9B4
:10583000436919680AB141F4C031196043691B68B2
:105840001046FDF7E9BF4369042270B5C3F8202173
:105850000446D3F82421510735D594220025C3F8F6
:10586000202104F58C56C3F82451FEF7C9FD2046CB
:10587000FEF7E6FC86F839500120FDF7B4FF86F804
:105880003150756320462946FFF7C4FF04F5B45331
:105890001A7D6AB120461D75FEF733FF96F8281071
:1058A000A1F102025142204641EB0201FEF7D8FC71
:1058B000204601F04EFD204602F04FFA204601F04E
:1058C00020FC002070BD4FF0FF3070BD43692DE912
:1058D000F0411A680446910759D55A68D20556D541
:1058E0004FF42862C3F820210322C3F8242100F5D5
:1058F0008C53002283F8382000F5B4531D7D7DB110
:10590000FEF708FD2046FEF729FC2046FEF798FC2E
:105910002046FFF709FA4FF47A7082F6F9FE1DE08F
:1059200004F5C05606214FF480222B46C06804F5CA
:10593000C45704F058FAD6F81630D6F8268001334A
:10594000C6F8163082F69CFDBB69C3EB080880449C
:10595000C6F82680BD6182F693FD786104F58C5609
:105960002046F36A23F00103F362FFF76CFF70B186
:1059700004F58E552A782AB9F06B696882F692FB95
:1059800001232B7004F58C54012384F83930BDE8D1
:10599000F0814269F8B5136804469B073FD500F5CE
:1059A000B453197D00293AD0196911B1D16400228C
:1059B0001A6104F5C05506214FF480220023E068E7
:1059C00004F011FA2046FFF781FF2046FEF709FC9C
:1059D000D5F81E30D5F82A6004F5C4540133C5F853
:1059E0001E3082F64DFDE369F61A3618C5F82A60B6
:1059F0000026E66182F644FD6061D5F81630D5F8E0
:105A000026700133C5F8163082F63AFDA369FF1AF5
:105A10003F18C5F82670A66182F632FD6061F8BDB8
:105A2000426938B5D2F8A4310446D2F8A41119431A
:105A3000C2F8A41100F58C52D56A1D4028D02B075E
:105A400001D5FFF73FF9E80706D504F5B4531B7DF0
:105A500013B92046FFF73AFF290607D504F58C5302
:105A6000DA6A22F0800242F01002DA62EA060AD50F
:105A700004F58C532046DA6A42F0800222F01002CC
:105A8000DA62FFF786FF2046BDE83840FEF7A9BB83
:105A900038BDF8B500F5805500F58C5393F83160AA
:105AA00004466B6B002B50D000F5C652D2691342EE
:105AB00001D0FFF779FE6B6BDB0328D504F5C253E9
:105AC00004F58C55D3F81A200132C3F81A2046B9D0
:105AD00095F831302BB104F5C8535A6801325A6039
:105AE00012E095F839307BB12046FFF7ACFE07464F
:105AF00038B904F58E5633781BB1E86BFDF750FCCE
:105B000037702046FEF76DFB204601F0FAFA04F5E7
:105B100080535B6B5D060ED504F58C5393F83820EB
:105B200032B993F83130012B02D12046FFF7CAF881
:105B30002046FFF73FFA04F580556B6BD80102D57C
:105B40002046FFF76DFF00236B6304F58A55AB69B0
:105B500033B1D90302D5204602F02AFB0023AB6102
:105B600004F58A55EB6943B1DA0305D5204602F006
:105B7000F1FA0023EB6100E0FEE704F58C5393F8A3
:105B8000313033B104F58E531B7A13B12046FFF741
:105B90009FFD04F58A5304F580549969626BDB69B3
:105BA0000A4313430CBF00200120F8BD10B5046860
:105BB0002046FFF748FE04F58E5340B104F58C549F
:105BC00059680022E06BBDE8104082F66BBA18708D
:105BD00010BD0000074B186858B100F58C5393F8BE
:105BE000313013B10121FFF715BE4FF08051FEF7A0
:105BF00035BD704748F31D0000F5A85238B512684E
:105C000000F59453044652689B6A002A2DD09A6B83
:105C10009278012A29D900F58C521268156800F58E
:105C20008A52D26B10689A6891881A691B8B126825
:105C30009A4288BF5B189A1A013992B28A1A92B2B4
:105C4000012A12D9052D10D908280ED92046002185
:105C5000FEF7E2FB04F58A5204F5C6532069116B86
:105C60001A69BDE8384002F02FBD38BD00F5A853D1
:105C70002DE9F047CF89B1F810901B680D46044616
:105C8000596809B9092209E000F5C058D8F80C3064
:105C9000DA89273ABA4206DC002103226B68BDE8A4
:105CA000F047FEF7E1BB184603F031F9064618B994
:105CB000204631460222F1E704F5C652D8F80C30EE
:105CC000DB89283B11699BB219B9994584BF994674
:105CD0002B8204F5A85212685268928A29B104F501
:105CE000C65149698A4228BF0A46914588BF2A821F
:105CF00004F58A52116B09B12046CDE728331663AB
:105D00002946B3812822B0687DF6A8F804F58C52A4
:105D1000012393773FB904F5B45220465372BDE88E
:105D2000F047FFF769BFB36804F5A852283310693C
:105D3000EA694260AA69C360044B0260078103619B
:105D40004461BDE8F047FDF79FBD00BF8B5D1800C3
:105D500038B500F58C539A7F04460AB100229A7731
:105D600004F58A55296B19B1A068002204F064FD7E
:105D700004F5B45304F5A85400210A462963597266
:105D8000E068BDE8384082F68DB938B544690D4603
:105D90001C2204F5A853002118697DF6E3F855B1DB
:105DA00004F5C65320469B69DA880132DA80BDE8E3
:105DB0003840FFF7CDBF04F58A531B6B43B104F5A0
:105DC000B453012220465A72BDE83840FFF714BF91
:105DD00038BD2DE9F84300F5A85391468A1E5B694A
:105DE0000746602192B24A439C18002507F5945853
:105DF0009D54E16CFEF7A1FBD8F8280000F003FEEB
:105E0000064610B3182229467DF6ACF8062338461C
:105E1000337094F8313073702146A36C7360238C17
:105E2000A6F808907381FEF7E7FBD8F828303846CB
:105E300031469A68D28801F0C0FB50B1638C23F0E0
:105E4000100328466384BDE8F8836FF01A00BDE8AC
:105E5000F8834FF0FF30BDE8F88370B50A46098932
:105E60008D1E0346ADB2272D01D9052208E000F5AD
:105E7000A8546026754366697419755D25B90122B9
:105E8000BDE87040FFF7A5BF5268A2642069E268D0
:105E900000681268824202D0608B824205D1628E15
:105EA0001AB9E27F0AB91846EAE7628C42F010029A
:105EB00018466284BDE87040FEF7B9BE2DE9F8438C
:105EC00000F5945700F5A8530646B86A89469046EF
:105ED0005C6900F098FD054608B3A9F1020960234A
:105EE0001FFA89F9002103FB094418227DF63AF8CC
:105EF000082330462B7094F831306B702946A36C20
:105F00006B60238C6B81BB6AA5F808809A68D28885
:105F100001F053FB18B1638C23F020036384BDE8C8
:105F2000F88330B50A4609898C1EA4B2272C01D902
:105F300005220EE000F5A853602552685B6905FB59
:105F400004339A64DC681A6924681268944204D1A4
:105F50000022BDE83040FFF7B1BF5A8C42F020026A
:105F60005A84BDE83040FEF762BE0000F8B500F587
:105F70009453164604465B6B0D469B689F7992FBD3
:105F8000F7F207FB1263002B6CD100F58C539B7F5B
:105F9000012B02D10B78092B64D004F5C253D3F83E
:105FA00022105218C3F8222059E02B78092B0ED06A
:105FB00006D8052B36D0072B39D0032B41D12CE046
:105FC0000D2B1BD0202B37D00B2B3AD109E004F539
:105FD0008C539B7F012B3FD020462946FFF746FE7E
:105FE0003AE004F5A853204629461A68FEF7EFF870
:105FF000002831D0204600210A220AE004F5A653E9
:1060000020462946DA6BFEF7E2F828B32046002145
:106010000B220B46FEF770FA1EE020462946FEF7DB
:1060200034FD19E020462946FFF717FF14E020460B
:106030002946FFF776FF0FE020462946FEF7B8F91C
:106040000AE00021204603220B46FEF755FA0748D6
:10605000294608227DF6F4FBF61BED19B6B2002E98
:10606000A3D101E04FF6FF763046F8BD7F751D00E5
:10607000704710B504468068FFF70BFD38B100216A
:1060800004F11C000A46BDE8104082F60BB8A06877
:10609000BDE81040FEF73DBF10B58469A068FEF76B
:1060A000EFFE38B1A068FEF71DFF2046BDE81040A6
:1060B000FFF7DFBF10BD0000F0B5023985B01E4606
:1060C0000023012915460A9C8769039312D80D48BD
:1060D0007CF6FCFF0B49024628467CF6FFFF48B9D8
:1060E0009DF830300093B8682946324603ABFFF77D
:1060F0002FF801E04FF0FF300CB1039B236005B097
:10610000F0BD00BF8F751D00896903468869194677
:1061100002F02ABA10B54468A068FEF7AFFF204627
:10612000BDE81040FFF7A5BF1346826910B590681F
:106130004A1E0C46142A38D8DFE802F00B0B37371A
:10614000371414371F1F3737323737373737372968
:1061500029009978A4F101035A4242EB030202F0AC
:1061600089F822E0A4F1060C9978DCF1000242EBF8
:106170000C02073302F0E3F817E0A4F1090E1979D5
:10618000DEF1000242EB0E0202F099F80DE0D97840
:10619000A4F114035A4242EB030202F0B0F804E007
:1061A0009978DA789B7902F0F5F8002010BD0A465C
:1061B00081690346886919467FF688BD0A46816968
:1061C00003468869194602F083BA10B54B8C13F068
:1061D00040040DD08B6B5878CB681A684B8B9A4271
:1061E0003CBF8A689288D31A834238BF184610BDD4
:1061F00000F588535B6B1B89C3B100F5C050028A60
:10620000934215D9981A8C8ECB68A04228BF20469D
:106210004A8B1C6894422FBFC2EB04028B689B8898
:10622000C2EB0302904228BF104610BD184610BDB5
:10623000204610BD0022134610B5841804F5A95459
:106240002478194644B9242202FB0303012203F5F2
:10625000A95308461A7004E0013324320A2BECD10A
:10626000FF2040B210BD2423002203FB010303F5ED
:10627000A9531A7070470369428B1B689A4205D371
:10628000994208D3914206D241837047914201D38B
:10629000994200D341837047836BDA685868824221
:1062A00008D00AB99A6800E052689160DA609A787A
:1062B00001329A70704700F5945030B5036B9B6BB8
:1062C0009B699D78587885421C788ABFC5EB040588
:1062D000C5EB00052D18651B012D08DD03EBC0057E
:1062E0000130A042A8BF002069602A72587030BDFA
:1062F00000F5C65393F82420436922B1D3F8E02176
:1063000042F0020203E0D3F8E02122F00202C3F8D7
:10631000E021704730B54589158042680A60C2693E
:106320005A6042F0004281695A60049A19600389F8
:10633000039C13801BB1436963600369236030BD14
:1063400000F58050838CC08C834296BFC0F580706E
:10635000C0EB0300C018704700F5A85043681A68E6
:1063600012B95960196002E05A68916159609A68DF
:1063700001329A6000238B61704700F5A850436892
:10638000186870B15A6890429A6802F1FF329A60B8
:1063900003D100225A601A60704782691A60002394
:1063A000836170470346F0B5C0680688588B864203
:1063B0009C6828BFC0EB0600A58838BFC0EB05006D
:1063C00080B20880E0B19E6B3AB1E788B2FBF7F289
:1063D0007678B24228BF324600E07278904228BFF9
:1063E000104608805E8BE288A0680C883419AC42A5
:1063F000A8BF002402FB06005C830B885A430A8076
:10640000F0BD70B18268D388B1FBF3F149B1036983
:10641000188841189288914202DB00221A60704766
:1064200019607047F0B50B8B0D698C68A688E08801
:10643000B2FBF0F22D68AB4234BFC3EB0507C3EBF0
:1064400006079D4286BF06EB030CC5EB0C05C5EBAA
:10645000030506F1FF3CC5EB0C05BD4238BF2F46D6
:10646000BFB2974208D3A46800FB03409B18B34215
:10647000A8BF00230B83F0BD0020F0BD00F59553AD
:1064800030B5196804468B6B9878002825D00A69C6
:106490000B8B8D68A888126893422ABFA988C3EB2A
:1064A0000201C3EB01019A4288BFC3189A1A01384E
:1064B000801A884228BF084678B104F58C531B68BF
:1064C0001B68042B08D904F58A54E36B1868062866
:1064D00094BF0020012030BD002030BD30B500F554
:1064E0008054A38C5D1C03F58273EDB200EBC300F6
:1064F000A58483680B6083791370808830BDF0B504
:106500009589B2F85470DDF818C0059E079CACF868
:1065100000701FB1D76C7760976C3760D68916F41E
:10652000005F0DD0B2F8506056B1C5F1880601F594
:1065300094512680166C546C751BCE69A91B06E01D
:1065400001F59451898B2180116C546C8839956BBD
:106550001D60D38923F4005380E81200D381F0BD7D
:1065600010B50346A8B18268D088B1FBF0F181B1C3
:1065700058699288DB681C886118914202DB00220E
:106580001A6000E0196003490322BDE81040FEF7DD
:1065900077BD10BD78563412F8B517469A68127850
:1065A000432A04460E46069D21D0462A19D00E2ABB
:1065B0003FD100F594539B6A9B6B9878002849D093
:1065C00004F5A65304F5C654DB6B586810B90123D3
:1065D0002372F8BD0023052023721F4B2B60042378
:1065E00030E0FFF74BFF002834D01C4B1DE000F5D6
:1065F0009454616A0B8B0A698868126893422CBFB5
:106600008488C3EB0204808828BFC3EB04049A4249
:1066100088BFC3189A1A0138801AA04228BF2046A2
:10662000C0B18B6B9878A8B10D4B2B600720052368
:1066300008E080681946012204F0FEF800230120DA
:106640002B60F8BD9E4204D3874234BF0020012056
:10665000F8BD0020F8BD00BF29561800137C1800B3
:10666000B378180000F58C5380685A6901325A617A
:10667000012204F0E1B870B500F58C5393F8313085
:10668000002B4CD100F5A8531C7F002C47D100F5FE
:10669000C4539B6A33E000221A769A6819E0916825
:1066A000CD682E684D8BAE4203D314BF0025012563
:1066B00007E08E68B688C5EB060CDCF1000545EBFB
:1066C0000C052DB94D8C45F002054D84012119763C
:1066D000126803F108018A42E1D15CB9DA8A2F2AF3
:1066E0000AD8197E41B1023292B2312ADA8203D13C
:1066F000302200E00422DA821A7E1B68144300F57F
:10670000C45228329342C6D14CB100F5A854217F1F
:1067100029B9A0690A4681F6C5FC0123237770BD1B
:106720002DE9F843B1F81A80571E8B689E8808EB54
:10673000070393FBF6F90C4606FB1939486D15461D
:106740001FFA89F949467DF603FBA8B1A26D32F81C
:106750001930590410D5012D0DD0A91E884498FB7D
:10676000F6F106FB11881FFA88F832F818209A42D1
:1067700002D0BDB200E000252846BDE8F8832DE92F
:10678000F0410446618B406C7DF6E2FA002850D05F
:10679000E368678B1B68BB4202D3C7EB030805E0C5
:1067A000A268B2F80480C7EB080898441FFA88F87A
:1067B00000263BE0F519A3689B8895FBF3F1206C5C
:1067C00003FB11517DF6C4FA90B1A3689B8895FB39
:1067D000F3F1606C03FB11517DF6BAFA40B9A3687E
:1067E0009B8895FBF3F203FB12556583BDE8F081AE
:1067F000A3689B8895FBF3F1206C03FB11517DF698
:10680000A7FA90B1A3689B8895FBF3F1606C03FB3A
:1068100011517DF69DFA40B1628B0132A3689B88CD
:1068200092FBF3F103FB112363830136B3B24345BB
:10683000C0D3BDE8F08173B51E4600238C681546B1
:10684000ADF806304A6824F07F4323F46003C2F3B6
:1068500014029B1A072B3FDDA4F108038B608B8980
:1068600008338B8102238B74052304F8083C06232C
:1068700004F8073C95F83620500718D5069B1BB145
:10688000D90E01F00F0100E0194641F0020123F09A
:10689000F04343EAC163069395F83730013BDBB21E
:1068A00085F837301BB922F0040285F83620686D70
:1068B00031467DF64DFA20B1AB6D33F81630ADF8A8
:1068C000063006A90422A01F7CF6C8FAA01E0DF10E
:1068D000060102227CF6C2FA7CBD2DE9F04389B0A4
:1068E000984604AC002305460693B8F1070F8CBF09
:1068F00047460827079300F58C5384E8060093F871
:106900003130DDF84090002B3CD100F5C65393F8B0
:10691000242022B9012283F82420FFF7E9FC05F5A1
:106920008A5608ACF36A44F8089D4BB1119B069354
:106930000823306994E8060002F00EFFCDF81890A5
:1069400094E806003B46306902F006FF05F58A52DE
:106950000123009701930293106904AA06CA02F06A
:1069600041FF05F58052D38C591C03F58273C9B2DF
:1069700005EBC3059DF84C30D184AB71129BA5F893
:106980000480AB6009B0BDE8F0832DE9F0410668F2
:1069900006F5C4539D6A25E0AC681EE0A768B86D93
:1069A000D0B1B7F85C80B8F1000F12D103F012FF3C
:1069B00006F5C653C7F8588093F82D20013A414692
:1069C00083F82D20BB689A88786DD2087CF6CAFAC5
:1069D00002E00023A7F85C30246805F108039C421C
:1069E000DCD12D6806F5C45328339D42D4D106F579
:1069F000C65696F82D4024B9B06AFCF7D1FC86F84B
:106A00002C40BDE8F081826BD36843B100219868C7
:106A100099601B68D3609378013B93707047184668
:106A2000704700002DE9F34705460C46FFF702FCCE
:106A3000071EC0F29980A36B9B78002B00F08D801D
:106A40002423628B284603FB0753214603F5A953F1
:106A500000265A80FFF7B9FB1FFA80F80FE0628B1F
:106A60009219A3689B8892FBF3F1606C03FB1121E0
:106A70007DF66EF910B11FFA86F802E00136464540
:106A8000EDDBB8F1000F68D0284621464246FFF7FB
:106A900047FE002861D0A3680DF10601DA88424361
:106AA000204692B2FFF77EFC8246002855D0204651
:106AB000BDF80660A368DB88B6FBF3F6FFF7A3FF1B
:106AC0004FF0240808FB07F805EB080707F5A95362
:106AD00059888A19013AA3689B8892FBF3FE03FB4D
