:1000000080F13EB882F1FCBC82F108BD82F114BDE2
:1000100082F123BD82F132BD82F141BD82F150BD3A
:1000200080F13EB882F1FCBC82F108BD82F114BDC2
:1000300082F123BD82F132BD82F141BD82F150BD1A
:10004000FAFAFAFAFAFAFAFAFAFAFAFAFAFAFAFA10
:10005000FAFAFAFAFAFAFAFAFAFAFAFAFAFAFAFA00
:10006000FAFAFAFAFAFAFAFAFAFAFAFAFAFAFAFAF0
:10007000FAFAFAFA444250501CE21D00000018003F
:10008000DFF844804FF00009B8E8FF00A9E8FF005E
:10009000EFF300804FF01F0120EA01004FF0D10183
:1000A00040EA010080F30089DFF820D0EFF3008000
:1000B0004FF01F0120EA01004FF0DF0140EA01008C
:1000C00080F30089024800472000180070D41D000A
:1000D000BD2B180000000000000000000000000020
:1000E0000000000000000000000000000000000010
:1000F0000000000000000000000000000000000000
:1001000000000000000000000000000000000000EF
:1001100000000000000000000000000000000000DF
:100980002D3718007BDD1A00D7DD1A0071D71A0049
:10099000E9D41A0035D41A007DD51A00F3D21A0012
:1009A000CFD31A0051DE1A002D371800B5D21A0025
:1009B000CFD21A001DD81A00DDD21A001DDD1A0090
:1009C000C9D21A00B5DB1A00592B1800552B180094
:1009D000512B1800492B18002D3718007D2B1800BB
:1009E0002D371800ADA818008BA71800ADA7180068
:1009F00091A71800A9A71800B1A718002D37180053
:100A000049A818000DA818005DA81800C9A718006B
:100A100085A81800E1871800BD8918002D37180037
:100A20007FA21800BB9D1800D7A218003D9F180098
:100A3000E9A218000FA61800B55D1E0011A4180049
:100A4000939E1800FF9E18007BA618007DA6180034
:100A5000ABA21800B35D1E002D3718002D3718000B
:100A60002D3718002D3718002D3718003D2C1C008D
:100A70002D3718002D3718002D37180047761A002B
:100A80002D3718004B761A002D3718002D37180017
:100A90002D3718002D3718002D3718002D37180066
:100AA0002D3718002D3718002D3718002D37180056
:100AB0002D3718002D3718002D371800131A1B007A
:100AC0002D3718002D3718002D3718002D37180036
:100AD0002D3718002D3718002D37180001021B0084
:100AE00003041B002FEE1A0035EC1A001DEC1A004F
:100AF000E1ED1A0085EE1A0017EC1A0041F61A0013
:100B0000E1F41A00CB061B0093061B002D371800DA
:100B100059061B004F761A002D371800CB191B0001
:100B2000891A1B002D3718002D3718002D37180093
:100B30002D3718002D3718002D3718002D371800C5
:100B40002D3718002D3718002D3718002D371800B5
:100B50002D3718002D3718002D3718002D371800A5
:100B60002D3718002D3718002D3718002D37180095
:100B70002D3718002D3718002D3718002D37180085
:100B80002D371800C3991C00ED8F1C0009841C0030
:100B9000F1AA1C00E78E1C00C78D1C0071881C0088
:100BA0004D941C0093941C0087941C0047841C00E7
:100BB000C5A11C00ED921C002D3718002D37180020
:100BC000C5891C0079891C00CF881C0089881C00FD
:100BD00083881C0093A51C002D3718002D371800A2
:100BE00033881C0047991C0013981C002B851C009F
:100BF000A9971C002D37180085B81C002D37180048
:100C00002D371800D3871C0033841C003D841C0042
:100C10004BA01C0031841C00778F1C00758F1C00BA
:100C2000299B1C0055921C002D371800B1971C0001
:100C3000F1B11C00D3B11C00DFB11C00FD871C000A
:100C4000FF9A1C0019A01C0003A01C00C18D1C00F1
:100C50002D3718002B841C002D3718000D921C0016
:100C60002D37180075B81C008F881C008F971C004A
:100C700057971C0035881C00B5971C002D371800AD
:100C80002D3718002D3718002D3718008DA61C00A1
:100C90000D8A1C00418E1C00638D1C00398D1C00C8
:100CA0002D3718002D371800978D1C00C18C1C00A3
:100CB000358A1C008B8D1C004FA31C002D3718009B
:100CC0002D3718002D37180097031B00E5031B0074
:100CD0002D031B0079031B00E5031D00DF041D002D
:100CE000AD041D00ED051D003F091D0005091D0097
:100CF0002D041D0083031D00CD041D004F041D00A5
:100D0000A3031D00A9031D002D3718002D3718005F
:100D10002D3718002D371800D9441D002D37180025
:100D20002D3718002D3718002D371800FD441D00F1
:100D30002D3718002D3718002D3718002D371800C3
:100D40002D3718002D3718000D761A00974B1D000F
:100D5000AB4F1D00834E1D004F4F1D00054F1D0062
:100D6000B74F1D00494F1D001B4C1D00734E1D0049
:100D70002D3718002D3718002D371800E5021B00FD
:100D80002D371800C1401800958C1800A18C180050
:100D9000D38F1800F5CF180091721900E5F71800ED
:100DA000412F1800893018009D311800613C18004F
:100DB000B93C18002D3718002D3718002D371800B2
:100DC0002D3718002D3718002D3718002D37180033
:100DD0002D3718002D371800F3841800C18618002D
:100DE00083121E003B141E00CD8C18002D371800F6
:100DF000E38E1800ED8F18006D9018002D911800EB
:100E00002D371800E9A8180029AD180079AE180090
:100E1000F1C31800CDC4180071CB1800E9CB18003D
:100E20002D37180027CC180033CC180045CC1800FB
:100E30002FCC180035CF18002D371800FBCF180025
:100E4000D3D81800CDD9180027DA18003DDA1800D9
:100E500057DA18006DDA180055DB1800E1DB1800CE
:100E60004DDC180077DA1800D5DF1800CDDC18004B
:100E700023DA1800E5F01800F1F01800B9F11800B5
:100E8000C9F5180001F8180061F918006DF918008B
:100E900075F9180089F918009FF91800C7F91800AA
:100EA000A3FA1800F90B19005D0C1900C9FB180012
:100EB000B11719002D3718008D28190011291900B4
:100EC000813419003D36190057381900CD411900F9
:100ED000E5411900614419007F4419008D4419004F
:100EE00089451900E3451900FF451900EB4F19002A
:100EF000E5531900757019003F761900998D190096
:100F0000D991190099991900D99C1900A9AE190015
:100F1000A1B4190099BD1900ADC41900D9CD1900AB
:100F20002D3718002D37180001EB19002D37180048
:100F30002D37180035081A0081321A0059321A006C
:100F400091351A002D371800BD411A00EF451A00DF
:100F5000194E1A004D641A000D5F1A006F5F1A00D7
:100F6000B9761A00717F1A002D371800DD7F1A003C
:100F70002D3718002D371800E58C1A0003BB1A0016
:100F800001E01A00A7E91A00BFE91A00C5E91A0032
:100F9000D1E91A00D9E91A0095EA1A00A9EA1A005B
:100FA000B3EA1A00DBEA1A0015EB1A00E9081B0085
:100FB00071C11C0075C11C0085C11C002D371800B3
:100FC0002D371800C5C11C002D3718002D3718000B
:100FD00035FA1C0081301D000101010000000008ED
:100FE000200000000002000004000000FF030000D9
:100FF0005000000001000000010000000A07080185
:1010000000000000080000000004000001040000CF
:1010100004000400080001000000000000000000BF
:1010200000000000000000000000000000000000C0
:1010300000000000000000000000000000000000B0
:1010400000000000000000000000000000000000A0
:101050000000000000000000000000000000000090
:1018000088F16EB90000000088F107B900000000FF
:1018100088F14AB80000000087F193BF0000000083
:101820006FF114BE000000006CF1BCBC00000000B1
:1018300085F1A0BC0000000060F19ABA0000000031
:1018400060F1B4B90000000082F186B90000000028
:1018500082F1DAB90000000081F1CABE0000000088
:101860007BF11EB9000000007BF18CBC0000000081
:101870007BF1FEBA0000000085F19EB80000000078
:1018800084F186BE0000000084F122BE000000004A
:101890007CF186BE000000007CF1E3BB000000008C
:1018A0007AF150BC000000007AF141BE0000000057
:1018B00079F1B7BF0000000079F1F8BE0000000028
:1018C00079F124BD000000007BF131B90000000077
:1018D0007CF15FBF000000007CF139BF0000000018
:1018E00075F188BC0000000075F17EBD00000000AD
:1018F00080F159B90000000077F1EAB9000000005A
:101900007CF107BC000000007DF153BF0000000027
:1019100071F12CBC000000007BF1CCBC0000000089
:1019200070F10ABB000000006FF1E2BF0000000090
:101930006FF170BD000000006FF170BC000000008E
:101940006FF147BC000000006FF15ABC00000000BE
:1019500076F18BBE000000007AF1D0BC00000000E0
:101960006EF120BC000000006EF126B900000000FE
:101970006DF126BF000000006FF116BB00000000F3
:101980006EF17CBB000000006DF1D5BB00000000D3
:101990006DF1B4B9000000006DF1CEB90000000097
:1019A0006CF1DABB000000006DF1FFBD000000002B
:1019B0006DF18EBF000000006CF1BEBF00000000A2
:1019C0006DF1B8BA000000006CF130BB00000000FF
:1019D0006CF1BDB8000000006BF16ABC00000000B3
:1019E0006CF138BD000000006CF1EABB00000000A3
:1019F0006BF13CB8000000006AF1BFBC00000000C1
:101A00006AF128BB000000005AF153B80000000042
:101A100070F1D9BB000000006AF1DAB900000000E3
:101A200069F1A9BD0000000069F1BEBB0000000023
:101A300069F165BC0000000069F1DAB9000000003E
:101A400069F1C2BE0000000069F1B2BC00000000F4
:101A500069F11CBA0000000068F116BF0000000028
:101A600069F16EB8000000006BF198B8000000004A
:101A70006BF120BB000000006AF131BA00000000E9
:101A80006AF1D8B90000000069F132B90000000025
:101A900069F1ACB80000000068F10BBF0000000065
:101AA00067F15EBD0000000066F152BB000000005F
:101AB00075F1ECB90000000063F190BF0000000078
:101AC00064F106BA0000000064F1D4BA000000001E
:101AD00064F115BA0000000064F1E5BA00000000EE
:101AE00063F14ABC0000000062F18EBD00000000FE
:101AF00062F1F6B80000000061F12FBF00000000A5
:101B000061F188BD0000000061F1E8BE0000000046
:101B100061F1AEBF0000000061F122BC00000000D6
:101B200061F1F0B90000000072F180BD000000001A
:101B300062F15DBF0000000062F168B800000000C3
:101B400062F149BC0000000062F190BC000000009E
:101B500062F1AFBB0000000061F1EABF00000000CD
:101B600061F1B6BD0000000061F1D2BF00000000CD
:101B700061F130BC0000000061F132B800000000EB
:101B800064F182BF0000000061F152BA0000000061
:101B90005DF17ABE000000005DF196B90000000022
:101BA0005DF10CBD000000005DF124B900000000F3
:101BB00061F17ABF000000005CF180BC0000000011
:101BC0005DF12EBB000000005DF142B80000000096
:101BD0005CF188BF000000005CF18EBF00000000D7
:101BE00072F12DBB0000000073F1BCBE00000000CC
:101BF00071F1C0BB000000005BF190BD000000006F
:101C00005DF130BB0000000062F1C0B800000000D0
:101C10005CF105BA000000005CF1ABB90000000007
:101C20006DF113BE000000005CF16CBB0000000011
:101C30006BF1DEBA000000006BF1E2BA00000000B8
:101C40005CF19CBD000000006DF1B5BA0000000021
:101C50006BF1E0BF0000000072F19ABD00000000CF
:101C60006BF195BF000000006BF134B8000000007C
:101C700065F132BA0000000068F14EB800000000C3
:101C800066F142BF000000005AF1DCBE0000000017
:101C90006BF152B90000000059F1ECBA00000000ED
:101CA00054F182BA0000000054F12EBA0000000086
:101CB00067F1AEBC000000006CF156BB00000000F4
:101CC0006CF10FBB000000006BF1F8B800000000E1
:101CD00066F1D7BA000000006AF132BF00000000D0
:101CE00069F11CB90000000066F11FB90000000096
:101CF00069F140BE0000000069F106BC0000000070
:101D00006EF116BE0000000069F164BB0000000027
:101D10006BF191B9000000006CF1E8BA000000001E
:101D200068F1A2BF000000005CF144BE00000000AA
:101D300068F114BF000000005CF10ABB0000000065
:101D400066F1C3BB0000000063F124BE0000000088
:101D500063F121BE0000000065F120BF000000001B
:101D600065F1C5BC0000000065F160BC000000002A
:101D700064F102BF0000000064F170BD00000000CB
:101D800064F1C9BE0000000068F130BD0000000031
:101D900064F180B90000000064F1F0B800000000B8
:101DA00064F1FABB0000000063F162BF00000000B4
:101DB0005CF1D2BB000000006BF160BC00000000D1
:101DC0006BF117BA000000006BF17CB80000000056
:101DD0006FF15BBC000000006AF1D9B9000000009F
:101DE00068F142BF0000000067F10CBD0000000078
:101DF0006CF18EB90000000063F184B800000000AF
:101E00006BF12FBF0000000068F14ABA000000002B
:101E100067F167B90000000063F1D1B8000000006D
:101E200063F152BB0000000062F1F4BD000000004D
:101E300063F180BB0000000063F196B90000000070
:101E400062F1A3BC0000000062F101BA00000000D2
:101E500062F127B90000000061F1A4BC000000009D
:101E600067F1D9BE000000006BF1ACBA00000000C1
:101E700069F130BA0000000059F14CBA00000000CE
:101E800059F142B80000000059F16CBA000000009E
:101E90006AF150B80000000064F10CB800000000C6
:101EA00063F1D2BE0000000000000000000000004E
:101EB0000000000000000000000000000000000022
:101EC0000000000000000000000000000000000012
:101ED0000000000000000000000000000000000002
:101EE00000000000000000000000000000000000F2
:101EF00000000000000000000000000000000000E2
:101F000000000000000000000000000000000000D1
:101F100000000000000000000000000000000000C1
:101F200000000000000000000000000000000000B1
:101F300000000000000000000000000000000000A1
:101F40000000000000000000000000000000000091
:101F50000000000000000000000000000000000081
:101F60000000000000000000000000000000000071
:101F70000000000000000000000000000000000061
:101F80000000000000000000000000000000000051
:101F90000000000000000000000000000000000041
:101FA0000000000000000000000000000000000031
:101FB0000000000000000000000000000000000021
:101FC0000000000000000000000000000000000011
:101FD0000000000000000000000000000000000001
:101FE00000000000000000000000000000000000F1
:101FF00000000000000000000000000000000000E1
:10200000F408000004000000001818005409000043
:102010000400000008181800040B00000400000071
:1020200010181800DC0B000004000000181818003D
:10203000D4FD02000400000020181800643F0300D3
:1020400004000000281818001838000004000000E0
:1020500030181800F0B1040004000000381818000F
:10206000B4B204000400000040181800D86F00004B
:102070000400000048181800D87200000400000096
:1020800050181800C8770000040000005818180005
:10209000508100000400000060181800A0810000BA
:1020A00004000000681818009C870000040000006D
:1020B00070181800D03E00000400000078181800C6
:1020C0000C43000004000000801818004045000088
:1020D00004000000881818008CDD000004000000D7
:1020E0009018180028E50000040000009818180057
:1020F000A407010004000000A0181800EC0801006B
:1021000004000000A8181800D82B010004000000EB
:10211000B01818004C2C010004000000B81818007A
:10212000303F010004000000C0181800946A01004C
:1021300004000000C8181800A87101000400000085
:10214000D0181800707A010004000000D818180098
:10215000A889010004000000E0181800DC890100D3
:1021600004000000E8181800288E01000400000098
:10217000F0181800809D010004000000F8181800F5
:10218000DCA901000400000000191800D4CD0100F2
:102190000400000008191800FCD101000400000030
:1021A00010191800E0D701000400000018191800E9
:1021B000D8DC0100040000002019180088D40200B7
:1021C000040000002819180060D802000400000074
:1021D0003019180038DE0200040000003819180019
:1021E0006CDF02000400000040191800C0DF02008C
:1021F0000400000048191800D0DE010004000000AF
:1022000050191800D0E3010004000000581918000C
:10221000E8F60200040000006019180038F9020016
:10222000040000006819180080FB02000400000090
:102230007019180064FF02000400000078191800EB
:10224000900303000400000080191800CC10030064
:102250000400000088191800641103000400000045
:1022600090191800B8150300040000009819180010
:102270008C1A030004000000A0191800602103005C
:1022800004000000A8191800D42303000400000073
:10229000B01918003841030004000000B8191800F4
:1022A0004425030004000000C0191800FC4203008C
:1022B00004000000C8191800B0500300040000001A
:1022C000D01918001C51030004000000D819180090
:1022D0002834030004000000E01918007C340300D7
:1022E00004000000E8191800A035030004000000F5
:1022F000F01918005873030004000000F8191800C2
:102300003877030004000000001A1800204B050075
:1023100004000000081A180040E401000400000056
:10232000101A1800789A030004000000181A180008
:10233000149C030004000000201A1800B49C030041
:1023400004000000281A1800E49D030004000000A7
:10235000301A1800449F030004000000381A1800C7
:1023600024A6030004000000401A1800A4A70300DC
:1023700004000000481A180084A8030004000000AC
:10238000501A1800F8A9030004000000581A180099
:10239000C4AE030004000000601A1800E8B803008F
:1023A00004000000681A180038BB03000400000095
:1023B000701A180038BC030004000000781A1800D6
:1023C00020BD030004000000801A1800A4BD030013
:1023D00004000000881A180040C103000400000037
:1023E000901A180028D4030004000000981A18005E
:1023F000F8E3030004000000A01A1800E4F503004D
:1024000004000000A81A18005CEA010004000000A3
:10241000B01A1800D037040004000000B81A1800E1
:10242000EC37040004000000C01A1800E43904006E
:1024300004000000C81A18008C42040004000000C8
:10244000D01A1800B044040004000000D81A180084
:10245000844B040004000000E01A1800AC4D040096
:1024600004000000E81A18002457040004000000CB
:10247000F01A1800A05C040004000000F81A18000C
:10248000945D040004000000001B1800D05D0400EF
:1024900004000000081B1800685E0400040000002F
:1024A000101B18007062040004000000181B1800C4
:1024B0002464040004000000201B1800B0EF010099
:1024C00004000000281B1800B86C04000400000081
:1024D000301B1800B470040004000000381B180002
:1024E0000072040004000000401B1800F072040099
:1024F00004000000481B1800687604000400000077
:10250000501B1800D877040004000000581B180066
:10251000447A040004000000601B1800E47D0400FD
:1025200004000000681B1800B87F040004000000CD
:10253000701B18008C83040004000000781B180036
:10254000A8FB030004000000801B1800249F040067
:1025500004000000881B180050DC04000400000088
:10256000901B180044E6040004000000981B1800AB
:10257000F4E9040004000000A01B180050EF040060
:1025800004000000A81B1800B86404000400000048
:10259000B01B1800B8F0040004000000B81B1800BD
:1025A0001C0F050004000000C01B1800D811050016
:1025B00004000000C81B1800BC190500040000003E
:1025C000D01B18000C1A050004000000D81B1800CE
:1025D000D4FA010004000000E01B1800A0FD010077
:1025E00004000000E81B180004480200040000007A
:1025F000F01B1800E84B050004000000F81B180051
:102600007CF1040004000000001C1800908C040001
:1026100004000000081C18004C26050004000000FF
:10262000101C18008426050004000000181C180067
:10263000BC59020004000000201C1800E4F2040051
:1026400004000000281C18008C5F02000400000039
:10265000301C18001060020004000000381C180034
:1026600004FA040004000000401C180090640200FA
:1026700004000000481C1800C464020004000000AC
:10268000501C18002865020004000000581C1800A7
:102690009465020004000000601C180078690200C4
:1026A00004000000681C1800ACAA0600040000002A
:1026B000701C1800D46C020004000000781C180084
:1026C0009403040004000000801C1800905B0500C7
:1026D00004000000881C1800747002000400000050
:1026E000901C1800907D050004000000981C180044
:1026F00008D6050004000000A01C180050D60500F4
:1027000004000000A81C1800EC7702000400000080
:10271000B01C1800B4F8050004000000B81C180034
:10272000E0F9050004000000C01C180008100600B5
:1027300004000000C81C18002C86020004000000E1
:10274000D01C1800A086020004000000D81C18004D
:102750008087020004000000E01C1800408902008D
:1027600004000000E81C180008280600040000000F
:10277000F01C18009C2B060004000000F81C180038
:10278000808A020004000000001D1800C431060009
:1027900004000000081D1800DC8C0200040000008A
:1027A000101D1800D88D020004000000181D18002C
:1027B000CC39060004000000201D1800181B05007D
:1027C00004000000281D18001496030004000000F7
:1027D000301D1800A000050004000000381D18007E
:1027E0000C0E040004000000401D1800D01104006D
:1027F00004000000481D1800041304000400000039
:10280000501D18005015040004000000581D180049
:10281000349C060004000000601D1800A09506000E
:1028200004000000681D1800B8A60600040000009F
:10283000701D1800C0AE060004000000781D1800CE
:10284000CCB0060004000000801D1800289802008B
:1028500004000000881D180080BE0600040000006F
:10286000901D180018BF060004000000981D1800F5
:10287000CCB4060004000000A01D18006CBC0600CB
:1028800004000000A81D1800B01C05000400000092
:10289000B01D1800049B020004000000B81D1800C1
:1028A000709F020004000000C01D1800C0A10200BB
:1028B00004000000C81D1800DCE002000400000055
:1028C000D01D1800BCA7020004000000D81D18008D
:1028D00048A8020004000000E01D180034AD02000A
:1028E00004000000E81D180064AE020004000000AF
:1028F000F01D1800A8FD060004000000F81D1800D7
:1029000094AF020004000000001E1800B4B00200E2
:1029100004000000081E180078B102000400000046
:10292000101E1800EC17040004000000181E180008
:1029300010B9020004000000201E1800B0BE020002
:1029400004000000281E1800A4E006000400000097
:10295000301E1800A4E4060004000000381E180011
:10296000D4F3060004000000401E1800BCFA060064
:1029700004000000481E180010FC060004000000BF
:10298000501E1800680C070004000000581E1800B4
:1029900094C1020004000000601E18007CC2020006
:1029A00004000000681E180028CA0200040000008D
:1029B000701E1800A4B0070004000000781E180064
:1029C00028B5070004000000801E180020BB070087
:1029D00004000000881E18007CCE020004000000E5
:1029E000901E18004CD2060004000000981E18002B
:1029F00090D4060004000000A01E18000000000093
:102A00002DE81FC0AFF31F8101B400B586B0FFB43D
:102A100080EA000000F1010000F063B82DE81FC05B
:102A2000AFF31F8101B400B586B0FFB480EA0000A7
:102A300000F1020000F055B8F54681B0EE462DE8F1
:102A40001FC0AFF31F8101B400B586B0FFB480EAA8
:102A5000000000F1030000F044B8F54682B0EE46F5
:102A60002DE81FC0AFF31F8101B400B586B0FFB4DD
:102A700080EA000000F1040000F033B8F54681B0B0
:102A8000EE462DE81FC0AFF31F8101B400B586B03C
:102A9000FFB480EA000000F1050000F022B8F5461E
:102AA00081B0EE462DE81FC0AFF37F8701B400B5BB
:102AB00086B0FFB480EA000000F1060000F011B813
:102AC000F54681B0EE462DE81FC0AFF37F8701B415
:102AD00000B586B0FFB480EA000000F1070000F006
:102AE00000B86C4604F140040ACCEFF300820FB446
:102AF000A4F10C04216003F040016F4607F1580770
:102B000066465D4654464B46424612B0FCB48CB015
:102B1000062802D1402900D061B60A4C2468002C56
:102B2000FED06846A04773B60CB07FBC804689468D
:102B300092469B46A446B6468FB0FFBC08B0BDE99E
:102B400000C00000CCD31D0062B6704764B6704769
:102B500061B6704772B6704772B6704719EE1C1FA7
:102B6000044A41EA020109EE1C1F034909EE3C1F19
:102B700070470000010000000000008019EE1D0FEA
:102B8000704715EE100F704716EE100F704715EED8
:102B9000300F704716EE500F70470000024A116860
:102BA0001060084670470000CCD31D00024A11682F
:102BB000106008467047000074D41D003A48016850
:102BC0003A4A02EA01023A4941580A68394B03EA93
:102BD00002030F2B00F00580012B03D001F104014B
:102BE000F3E7FEE701F10801334B03EA0203334C3C
:102BF000A342EAD100F046F9804600F053F981463D
:102C000049462F4BCB5800F0EBF87946B14240F1E2
:102C1000028000F093F940462A49086048462A4954
:102C2000086000F0DDF829490D6029490E60294946
:102C30000F603D46284829494FF0000204C08142F8
:102C4000FCD8A5F10405AD46009D6FEA05044FF0E0
:102C5000100365FA03F5AC4240F017804FEA1444C4
:102C60004FEA84041E4D2C606B46A3EB04031D4EFB
:102C70001D4D2E60002C00F008801A4D05EB040657
:102C800080CB80C5AE423FF7FBAF81B068464FEACC
:102C900010104FEA0010854600F062F8134886468F
:102CA000134C2047FEE7000000000018F8FF00006A
:102CB000FC0000000F00000000FF0F00003E0800B5
:102CC00008040000D4D31D00D8D31D00E4D31D0098
:102CD000E8D31D00ECD31D006CE11D009CE91D0034
:102CE00000D41D00BC201F00F4D31D00A42C18002C
:102CF000DB8A180011EE100F20F00100BFF34F8F98
:102D0000BFF36F8F01EE100FBFF34F8FBFF36F8FC5
:102D1000704700BF11EE100F40F00100BFF34F8F5E
:102D2000BFF36F8F01EE100FBFF34F8FBFF36F8FA5
:102D300000BF704700BF2DE90140FFF7DBFF01BC7A
:102D400006EE120F06EE111F42F0010206EE512FA1
:102D500006EE913FFFF7DEFF5DF804FB00BF0000C9
:102D60004DF804ED10EE900FC0F30721002900F09C
:102D70001980FFF7BFFF174C80EA00000ECC002936
:102D800000F00B8006EE120F06EE511F06EE112F1B
:102D900006EE913F00F10100F0E7002800F002800C
:102DA000FFF7B8FF5DF804FB00BF00BFAFF3008082
:102DB0003F00000000000000050300003700000095
:102DC000000000000F0300000000000000000000F1
:102DD00000000000B02D1800AFF30080AFF30080BA
:102DE00041464A681346204C03EA04034FEA131392
:102DF0001E4C02EA040216461A441D484FF0000514
:102E000008644B6C1B4C03EA040303F101031A4CE6
:102E10001B4603FB04F31D4400F101009042EFDB6D
:102E2000002D3FF4DEAE154D414632464FF0000610
:102E30000F4808644B6C0F4C03EA040303F10103D1
:102E40000D4C1B4603FB04F31E4400F101009042AD
:102E5000EFDB19EE112F0A4902EA0102A2EB06028A
:102E600005EB020716467047F00000000F00000057
:102E7000000000003F0000000020000000000C00E7
:102E800000F0FFFF0868054A01F1040102EA0002B0
:102E9000052AF7D1024A00EA020070470F0000003D
:102EA00000F0FFFF0868074A01F1040102EA00028E
:102EB000052AF7D1044A1042F4D0044A00EA02007D
:102EC000704700000F0000008000000000F0FFFFCE
:102ED0000C490D4A0D4B0E4C0E4D0F4E0F4F104826
:102EE0008046104881461048824610488346104864
:102EF00084461048104886464FF00000B0FBF0F0C2
:102F0000056070470101010102020202030303038D
:102F10000404040405050505060606060707070759
:102F200008080808090909090A0A0A0A0B0B0B0B09
:102F30000C0C0C0C0D0D0D0D0E0E0E0EFEE7000010
:102F4000004870476CE11D0000487047DCE11D003F
:102F50000048704704E21D0000487047F4E11D007E
:102F60000048704764E21D0000487047A8E11D005A
:102F7000074B002282611B681A680AB9586005E095
:102F800019B95A689061586070478261186070473B
:102F9000E4E11D0008B5827A084B42F0010282721A
:102FA0001A6822B153682BB19168984708BD4FF059
:102FB000FF3008BD4FF0FF3008BD00BF7CE21D00B0
:102FC000074B1B68186850B15A6890424FF00002D6
:102FD00002D11A605A607047816919608261704736
:102FE000E4E11D00054B1B68186830B182691A6066
:102FF0001A89013A1A81002383617047B8E11D00E4
:10300000094B1B681A680AB9586005E019B95A6873
:103010001061586001E0026118605A8901325A81DA
:1030200000225B681A617047BCE11D00094B1B68F8
:10303000186868B15A6890425A8903D10021196012
:10304000596001E001691960013A5A810023036166
:10305000704700BFBCE11D0038B5094B1C220021A0
:1030600005461C687FF67EFF2389226812B96560D9
:10307000256002E06268956165600133238138BD97
:10308000B8E11D0007F0A5BD01232DE9F74F8B40E6
:10309000B3F5001F28BF4FF40013042B38BF0423DF
:1030A0000330019320F00304FFF74EFF364B00225C
:1030B0001546D3F800B09446134622E0D1F800A09C
:1030C000A2451DD301F10807019E07EB0A08C6F1CE
:1030D0000009C4EB080609EA0606BE4210D3C7EB96
:1030E0000609B9F1070F01D8BE4209D1C4EB0A079E
:1030F0005F4505D2424635466FB1BB4684460B4616
:10310000084641680029D9D13BB9204A18461168C0
:103110000131116036E084460B46521B111B102909
:1031200009D918682A19401A0839186029515968AC
:1031300051605A6022461968891A03D15A68CCF83E
:1031400004200CE0072905D8104B00201A68013232
:103150001A6017E05A50A1F108021A605B180C4877
:10316000002219685A6002688A18026009480168DA
:10317000083101608918084A1068814203F108008B
:1031800088BF1160BDE8FE8F2C10180028101800B1
:103190004C10180074101800F0E11D0038B5194BE0
:1031A000054650F8082CA0F1080419688A1A1A601C
:1031B000154B1A68083A1A60FFF7C6FE02E0A342F0
:1031C00003D218464368002BF9D155F8082CA918EA
:1031D0008B4205D119685B685218083245F8082CF3
:1031E0006360036803F108028218A24207D155F810
:1031F000082C9B18083303606368436000E0446058
:10320000002038BD4C1018007410180010B50021B3
:10321000044640227FF6A6FE104B2360104B6360ED
:10322000104BA360104BE360104B2361104B6361A4
:10323000104BA361104BE361104B2362104B636290
:10324000104BA362104BE362104B2363104B63637C
:10325000104BA363104BE36310BD00BF00001800C8
:103260003A5A1D00405A1D00BCD31D00C0D31D009A
:103270006CE11D006CE11D009CE91D009CE91D0036
:1032800034F21F0034F21F005CD62000D400180076
:1032900000091800000018000000180070B590B078
:1032A0006846FFF7B3FF2A4D2978002935D10898E1
:1032B000099C241A06D022467FF654FE089821461F
:1032C00084F602FF23492246234801247FF670FE3C
:1032D0000022224B1A702C7084F630FE204B1968A5
:1032E00031B10B7823B11F4B2246186805F03FFE21
:1032F0001D4B196831B10B7823B11A4B01221868A4
:1033000005F035FE194B1968F1B10B78E3B1154B97
:103310000122186805F02BFE16E0154E317899B998
:103320000A980B9C241A06D022467FF61BFE0A98A8
:10333000214684F6C9FE084822460E497FF638FE2B
:1033400000232B700123337084F6F8FD10B070BD9C
:1033500074E21D0058460800CA641D0000E21D000A
:10336000701018000CE21D0078E21D0070E21D00D4
:1033700018E21D000E920800014B1868704700BF4C
:10338000E4D31D00014B1868704700BFE8D31D004F
:1033900008B5836A33B10023836280F8203010308F
:1033A00084F6BEFE012008BD38B5034C256800F048
:1033B0005FFD4019206038BD80E21D0070B501241A
:1033C000FFF7F2FF064612E01B4B1C6809E0E368BA
:1033D0001D4205D025EA030563680BB1A068984734
:1033E00024680DB1002CF2D184F614FE0446134B70
:1033F00018688AF689FD124B1D680540E4D1002C3F
:10340000E2D1104D2B6823B11B6813B1586885F6C3
:10341000B3F9FFF7C9FF0C4B5A68921B12185A6098
:103420005A6901325A612B6823B11B6813B15B687A
:10343000002BC5D070BD00BF6C10180034101800F0
:103440004810180060101800C0E11D00024B1A68F7
:1034500001321A60704700BF10E21D00014B18686E
:10346000704700BF10E21D002DE9F04F9DB00AA883
:10347000FFF7CCFEFFF780FF924EDFF8A882DFF85F
:10348000A8A2914F0446FFF77DFF0A9B0B9A0F9964
:10349000D21A0E9B0D9DC3EB01091199109BCB1AFB
:1034A0000C99C1EB050B93443268D8F8001002F573
:1034B0000052521A4A44D2185A441419DAF80050E9
:1034C000241882480994824C2268AD183A680893FF
:1034D000C5EB020CCDF81CC07FF66AFD089B09F510
:1034E0007E710193073103F57E7307330BF57E720E
:1034F0009B0A890A073202930823920A00915946CF
:1035000003934B4673487FF653FD33682068DDF81C
:103510001CC03968019000F57E70039303F57E733B
:103520000CF57E760730073301F57E720736800A88
:103530009B0A0732B60A920A0290049363466648D1
:1035400000967FF635FD099905F57E72073201F583
:103550007E730733920A9B0A294600934646099BCD
:103560005E487FF625FD5E4B5E4F5F4819687FF62B
:103570001FFD39685D4B0A689A4203D05C487FF6AC
:1035800017FD25E01A910B4604E01568131D5748F6
:10359000854203D11A461BAB9A42F6D31AAD336863
:1035A00000932B4653481A927FF602FD3B681A9A05
:1035B000E91AD31A50480A4600937FF6F9FC33689B
:1035C0001A9A591B9B1A4D480A4600937FF6F0FC45
:1035D0004B4B1B68C3B11D78CDB15989DD8901FB07
:1035E00005F61A8938354D4306F57E73073345488D
:1035F0009B128DE8280005F57E7307339B1202931A
:1036000033467FF6D5FC03E01D461E4600E02E46FD
:103610003D4B1A68C2B11378B3B15189D08901FB0F
:1036200000F31289583048432D18019000F57E7040
:1036300003F57E77073007378012BF120290F61825
:10364000324800977FF6B4FC314B1A6852B31378B6
:1036500043B35189D08901FB00F3128958304843A4
:103660002D18019000F57E7003F57E77073007373F
:103670008012BF120290F618264800977FF698FC39
:103680002368DAF80020991B9B185B1B03F57E70FA
:10369000073001F57E72800A07320090920A1E48B8
:1036A0007FF686FC1D4B1D6884F644FE0446FFF73A
:1036B000D5FE29462246034619487FF679FC1DB0FF
:1036C000BDE8F08FF0E11D002C101800FD641D0016
:1036D0004C1018000C651D004B651D0090651D0009
:1036E00028101800B4E11D00CB651D004B41545358
:1036F000E6651D000A661D0041661D0066661D0028
:10370000701018008C661D0078E21D00B9661D005F
:1037100070E21D00EB661D0020671D0038101800C8
:103720004A671D00FCE11D007410180008B57146C1
:1037300003487FF63DFC0120BDE8084000F0AEBB29
:1037400072671D00084B00211A6802605A684260C7
:103750009A688260DA68C2601A6902615A694261D5
:1037600018461C227FF6FEBBC0E11D00014B036022
:10377000704700BF88E21D0038B50D460446FFF7CC
:10378000E7FB0168034631B105485A687FF610FC33
:103790004FF0FF3038BD80E83000084638BD00BF2C
:1037A00081671D0010B50C46FFF7D2FB036813B10B
:1037B000406821469847002010BD38B504460D46A4
:1037C000FFF7CAFB03681BB980E83000184638BD14
:1037D0004FF0FF3038BD10B50446FFF7BDFB03685E
:1037E00013B1406821469847002010BD38B5044603
:1037F0000D46FFF7B5FB03681BB980E8300018469B
:1038000038BD4FF0FF3038BD10B50446FFF7A8FBB8
:10381000036813B1406821469847002010BD38B5B1
:1038200004460D46FFF7A0FB03681BB980E8300093
:10383000184638BD4FF0FF3038BD38B505460C4648
:10384000FFF792FB03681BB1406829462246984760
:10385000002038BD024B1B680BB15860996070475F
:103860007CE21D00034B1B681868D0F1010038BFD3
:1038700000207047E4E11D0010B50446FFF7F2FF99
:1038800018B12046FFF786FB28B120460021BDE88D
:103890001040FFF76DBB10BDF8B506460768FFF78F
:1038A000A1FB0546002853D02B4B1B68186805F078
:1038B00018FB044688B984F617FDB0F5804F08D987
:1038C000264B22464FF4F061186806F071FF04465B
:1038D00018B92846FFF7C0FB13E07B6C08200021D5
:1038E00023F000436B601E4B2B61FFF7CDFB58B9F3
:1038F0002846FFF7B1FB194B21460122186806F054
:1039000085FF6FF01A00F8BDB368B7F85020A168C2
:103910000360F3684360B6F90630D21AB388CB1857
:10392000686100212A81A281FA7CA360E274B6F961
:103930000620EB603B6CD31822462B60094B1868BD
:1039400080F652FC2846A761FFF796FF0020F8BDDD
:103950006FF01500F8BD00BF7CE21D000CE21D00F9
:10396000E139180014E21D0010B50BE0FFF728FB49
:103970000446FFF70FFB28B120460121BDE81040A7
:10398000FFF7F6BAFFF76EFF0028EFD010BD00007A
:10399000034B1B681B680BB1FFF7E6BF704700BF06
:1039A000E4E11D000D4B70B51C6811E0FFF73EFB14
:1039B0000646FFF771FF051E0ADA15F1160F14BF50
:1039C0000125022530460121FFF71AFB257270BD43
:1039D0002368002BEAD1237270BD00BFBCE11D003B
:1039E0002DE9F843064640690D4690E89000FFF740
:1039F000D5FB0F4B0021186880F680FB8046A0B1F4
:103A00000023D0F8189083613046FFF725FB24B1DE
:103A1000404649463A462B46A047064B1B681B7A50
:103A20001BB1BDE8F843FFF7BDBFBDE8F88300BF99
:103A300014E21D00BCE11D0070B5164D04462E4673
:103A40002B685B897F2B05D9FFF7ACFF2B685B895F
:103A50007F2B1CD833680F4D1B6893B92046FFF7A6
:103A60001BFF10F1160F05D098B11B3006D12B6843
:103A7000012201E02B6802221A7202E006487FF65A
:103A800097FA20460021FFF7BBFA002070BD4FF0E7
:103A9000FF3070BDBCE11D00C2671D00034B1B68F9
:103AA0001B7A0BB1FFF77EBF704700BFBCE11D0062
:103AB000014B83E803007047E8E11D00034A08B5A5
:103AC00013680BB15068984708BD00BFE8E11D00BE
:103AD00000487047DCE21D0038B504460D46FFF78C
:103AE000F7FF80E8300038BD2DE9F34107460C466A
:103AF00084F620FC10B9FFF7A9FC3AE00026204626
:103B00000DF106016A46ADF8066007F1030800965C
:103B100084F6C0FF009D28F0030840F638034544B2
:103B20009D4226D82DB328463146FFF7ADFA04460C
:103B3000F8B13146009A7FF615FA009BA78120461E
:103B4000ED1AE218C8EB050802EB0803013DA3607B
:103B5000636862F3140363601B0C65F34F13E38027
:103B600084F6D2FB0123A3702080BDF80630E381E8
:103B700004E0044B00241A6801321A602046BDE8B4
:103B8000FC8100BFD8E21D0038B5002105468089C0
:103B9000FFF7AAFF044620B18068AA89A9687FF6CA
:103BA0005DF9204638BD000038B5058A426801231A
:103BB0000446C2F314028370C38802EB5312836875
:103BC0000132C81CA18100215B0D5B05D218074B97
:103BD0000340D31A04F11000A360E38903F40C53EB
:103BE0002822E3817FF6BEF9258238BDFCFF010063
:103BF00038B50446E389590621D4A278013AD2B2F5
:103C0000A270002A27D1E27862B1134B204653F804
:103C10002250E989FFF7C8FF21462846BDE8384011
:103C200005F092B9DA0516D40C4B2046A360218822
:103C300084F686FB2046BDE83840FFF7AFBA074B55
:103C40002046A3602188A56B84F67AFB2046FFF707
:103C5000A5FA2C46CEE738BDBCE31D00EFBEADDEB5
:103C600038B504461DE0104BA28A1B6853F8225059
:103C70000E4A13682BB100215068A1822146984753
:103C800070B90B4B1B6843B10A4AE1781B6852F8C4
:103C900021209A4201D1FFF701FF2046FFF7A8FF3C
:103CA0002C46002CDFD138BD20101800DCE21D00AE
:103CB0007CE21D00BCE31D00374B70B51C68266814
:103CC00076B1A3190025A6611D776319187F013508
:103CD00084F6B4FEB542F8D10A2084F6AFFE47E080
:103CE000D4F89C00002856D0022184F605FE00F08E
:103CF0000F0001284FD0022802D1204684F608FE8A
:103D00000521D4F89C0084F6F7FDC20743D5D4F80A
:103D10009C00002184F6F0FDD4F8AC3005461BB1C0
:103D2000D4F8A800E9B298470D2D10D0082D01D085
:103D30007F2D0DD1A369002B2DD0013B0820A3615D
:103D400084F67CFE202084F679FE08201FE00A25F8
:103D5000284684F673FEA6690A2D04EB060305D0F7
:103D600001367F2E1D77A66102D870BD00221A771A
:103D70007F2EA66104D804F11C00314684F632FE81
:103D800000233E20A361236084F658FE2020BDE876
:103D9000704084F653BE70BD781018002C4B70B57F
:103DA0001B68002B51D02B4A106800284ED05C694C
:103DB000222C07DDDA69510604D5274A126802F57C
:103DC000C26201E000F5C2620432222C116807DDF4
:103DD000DA69520604D5204A126802F5C26201E08F
:103DE00000F5C2620432126891420AD0222C04DD2E
:103DF000DB69590644BF184B186800F5C2600430EF
:103E00000168164B1868081A20D019601449D1E9C6
:103E10000023121843F100030126C1E90023114BCE
:103E200011491C68D1E90023E4FB00230F48046812
:103E3000203C33FA04F016FA04F4661E002403EA68
:103E400006051443C1E9004570BD184670BD00BFAA
:103E5000341018004010180064101800AC1018003E
:103E6000A0101800DC0F1800B0101800E00F1800A8
:103E700008B5FEF783FE074B07491A680968801AE0
:103E8000884205D3B0FBF1F001FB00221A6008BDA7
:103E9000002008BDF8E21D00F00F180010B5044620
:103EA00084F672FD0CB100231B60064B00211868DC
:103EB00082F65EFE044B1B6803B1984784F664FDEE
:103EC000FEE700BF34101800901018002DE9FF47DE
:103ED0004B4B0446D8620368042B03D1494B186846
:103EE00089F6B0FD2368062B04D104B0BDE8F04785
:103EF000FFF764BA444B454E656C1B68F169326844
:103F0000C5EB030A42487FF653F8A36C00932246A0
:103F1000636C4FEA9A0A0193A3680293E3680393E0
:103F20003C48E36C21687FF643F82368042B07D1F3
:103F3000FEF727FE0746FEF727FE0246364808E052
:103F4000032B09D1FEF723FE0746FEF723FE0246A8
:103F5000324839467FF62CF8E36904F110010093EA
:103F60000027236AB9460193B846636A0293A36A9D
:103F700003932B480EC97FF61BF8A36B04F12C01A9
:103F80000093E36B0193236C029326480EC97FF6DE
:103F90000FF8EB680093244895E80E007FF608F8C8
:103FA00005F11001EB69009320480EC97FF600F877
:103FB00018E07A59D3070FD5FF2A0DD91C4B9A4226
:103FC00004D902F16243B3F5801F05D81948394678
:103FD0007EF6EEFF09F101090437B9F10F0F08F180
:103FE000010801D8D045E4D13368002043F4806350
:103FF00086E8180004B0BDE8F047FFF74FBF00BFE8
:104000001CE21D0034101800ECD31D0088E21D00D6
:10401000FB671D0011681D0046681D005A681D00E1
:104020006E681D00A1681D00D0681D00EE681D00AF
:104030003A5A1D000C691D002DE9F34198461B4BAF
:104040000D46064614461F681948BF1A7EF6B0FF93
:1040500031462A46174800252346CDF80080BF0880
:104060007EF6A6FFA8462E4617E02A59D1070FD59F
:10407000FF2A0DD9104B9A4204D902F16243B3F5DD
:10408000801F05D80D4829467EF692FF08F10108E9
:1040900001360435B8F10F0F01D8BE42E5D100203A
:1040A00002B0BDE8F041FFF7F9BE00BFECD31D0040
:1040B00018691D0030691D003A5A1D000C691D0069
:1040C000014B1868704700BFF0D31D008842F0B55F
:1040D0001DD8E2B1F3B10D1A002400E001346D08DF
:1040E000FCD10127013817FA04F6C6F1000C351887
:1040F0000CEA0505AE198E4205D9013C17FA04F108
:104100004D4208180540156000201C60F0BD4FF0BE
:10411000FF30F0BD4FF0FF30F0BD072870B50FD86D
:10412000151F1B2D0CD80126551C16FA05F5013D4F
:1041300015EA010407D1B240FEF7FDFD204670BD2F
:104140004FF0FF3070BD4FF0FF3070BD40F64402BD
:104150004369C3F82021094AC3F8242140F64802E4
:10416000C3F82021064AC3F8242140F64C02C3F8C4
:104170002021044AC3F82421704700BF3C883C88B2
:10418000648864880390039070B504689CB1468984
:104190000589AE4211D2256805600D684968A560A1
:1041A000E160A38243682360438901332261446054
:1041B0004381002070BD072070BD072070BD08B589
:1041C0000B46104610315A681B89FFF7DDFFC0B25D
:1041D00008BD00F58053DB6ADA0105D5436900F5B7
:1041E0008C50C26AC3F8A82170474FF0FF32436970
:1041F0001A62C3F89021C3F89821C3F8A42170472C
:104200004FF4807243699A6270470000024B1A684B
:1042100001321A60704700BF88D41D0003685A69D4
:1042200003F58C531B7FC2F8A03170470020704704
:1042300043691A6842F010021A604FF40062C3F832
:104240002021D3F8242122F08072C3F82421704762
:104250007FB52B4B04460D4604AE0FCB06E90F008D
:1042600004F58C5393F83130002B47D1E5B96369DD
:104270004FF41372C3F82021D3F8242102F0030372
:1042800006EB830353F8103C591C37D0D208534334
:10429000192205335A43B2F5005F2FD2B2F5806F71
:1042A00004D3D208012501E01D469622636941F638
:1042B000140102F03F00C3F820119209D3F8241131
:1042C000520121F07C5121F4F07142EA0062C3F8FE
:1042D0002411D3F824110A43C3F8242141F618020B
:1042E000C3F82021D3F8242122F48002C3F824212A
:1042F000D3F8242142EA8555C3F824517FBD00BF7D
:10430000405A1D00436941F61402C3F82021D3F836
:10431000242142F01F02C3F82421704700F5C45342
:10432000F0B55D6A1C24544300F5C6562B19CB60CA
:1043300096F831600EB9184E00E0184EB65C1A6956
:104340004A6017680F6011600A6851605A7D1961F0
:1043500002BB00F5C452926A0CE000F5C65191F818
:104360003170117D0FB90C4F00E00C4F795CB142F8
:1043700005D3126800F5C45128318A42EDD10121DC
:10438000597530215268D9825A60116829511360D9
:104390002A595360F0BD00BF4F6C1D00476C1D00D3
:1043A00070470020704700F5C4539B6A07E09A6885
:1043B00000E0126803F108018A42FAD11B6800F597
:1043C000C45228329342F2D1002070474369B4228C
:1043D000C3F82021D3F8243103F4E0431B0B032B53
:1043E0009ABF024AD05C0620704700BF82691D0058
:1043F00000F5C7531A68012A05D198214369C3F80B
:104400002011C3F82421704770B500F59455044677
:104410000E46A86A02F0EFFA014630B904F5C65418
:10442000A3691A8801321A8070BD04F58A531B6B88
:104430009A680023837043700A20087050684B818B
:104440009368CB60AB6A486020460E819A68D28838
:10445000BDE8704003F0A9B82DE9F04700F5945885
:1044600004469946D8F828000D46164602F0C3FACD
:104470000021182207467EF675FD01233E81204665
:104480003B703946D8F828307D81C7F804909A6887
:10449000D288BDE8F04703F088B82DE9F041069DC9
:1044A00004460E4628461746984602F0A4FA0146EE
:1044B000B0B10E2380F801800370002346600381B1
:1044C0000223878143812046AB68DA882B4603F0BC
:1044D0006CF800280CBF4FF0FF300020BDE8F081E1
:1044E0004FF0FF30BDE8F0812DE9F04700F594581A
:1044F00004469946D8F828000E46154602F07BFA85
:104500000021182207467EF62DFD0223BE8120469B
:104510003B703946D8F828303D81A7F80A909A6850
:10452000D288BDE8F04703F040B8CB6830B51A69CF
:104530000C688A424A6808BF1A6114600C6862609D
:104540001A4652F8084F944207D15A681D68156000
:104550001D686A6000221C615A7500F5C550002371
:1045600000688B60CB60BDE8304004F09BBE38B57E
:104570000C4649B938BD0C2303FB05430135EDB2A8
:10458000586A06F011F900E000252378AB42F2D812
:104590002046BDE8384006F007B970B50446486CBF
:1045A0000D4608B106F000F9286C08B106F0FCF8D9
:1045B000686D08B106F0F8F8A86D78B106F0F4F867
:1045C00004F5C65494F82D60013EF6B284F82D60CF
:1045D00026B9A06AFEF7DCFE84F82C6000236B6528
:1045E0006B642B64AB6570BD70B50C4651B1002592
:1045F0000D704D830D83FFF7D0FF2369E57784F8B5
:1046000052501D6070BD00000F4B70B599420C46B2
:10461000164612D8022A13D800F58C556B7F13B1B9
:10462000A869FEF7B5FE01232E7721466B7700229D
:10463000A86983F637FD002070BD6FF01C0070BDC7
:104640006FF01C0070BD00BF8096980000F58C5381
:1046500070B55B6A04460E46CBB11B6843B90CE0EB
:104660000A2084F655F804F58C535B6A1B6800E059
:104670006525013D01D0002BF2D104F58C521E437B
:104680002046526A1660BDE87040FFF7B9BD70BDA4
:1046900070B500F58C5393F828308B4205460C46D4
:1046A00026D009B9FFF7D4FD022C6B69C3F8A041ED
:1046B0001AD103E00A2084F62BF800E00B266B6980
:1046C000D3F8A02102F44072B2F5007F01D0013E80
:1046D000F0D1D3F8A03103F44073B3F5007F03D1D8
:1046E00028460121FFF7B4FD05F58C5585F82840D3
:1046F00070BD436970B5D4260446C3F82061D3F871
:1047000024516B0518D5FFF721FD6369C3F82061BB
:104710000221C3F824512046FFF7BAFF4FF47A7004
:1047200083F6F6FF20460021FFF7B2FF4FF47A70C0
:10473000BDE8704083F6ECBF70BD000010B50446C4
:1047400004F5C6540C487EF633FC0C48A36919885E
:104750007EF62EFCA3690A4859887EF629FCA369D7
:10476000084899887EF624FCA3690748D988BDE8E3
:1047700010407EF61DBC00BF86691D00AE691D009D
:10478000C5691D00D8691D00E9691D0038B5446878
:10479000054674B1236818224360084621467EF618
:1047A0005DFB2B6823606B89013B2C6001206B81D2
:1047B00038BD204638BD2DE9F04100F5C056A2B005
:1047C00004460D46D6F8228083F65AFE04F5C457F7
:1047D0007B69C3EB08088044C6F8228083F650FE4C
:1047E00004F5C25240F684217861C2F8160002A88E
:1047F00063698424C3F82011D3F82411C6F82E105D
:1048000040F68821C3F82011D3F82411C6F83210DD
:1048100040F68C21C3F82011D3F82411C6F83610C5
:104820004FF42961C3F82011D3F82411C6F83A10C7
:1048300040F69421C3F82011D3F82411C6F83E1095
:1048400040F69821C3F82011D3F82411C2F80210C1
:1048500040F69C21C3F82011D3F82411C2F80610A9
:104860004FF42A61C3F82011D3F82411C2F80A10BA
:1048700040F6A421C3F82011D3F82411C2F80E1079
:1048800040F6A821C3F8201106F11201D3F8243113
:10489000C2F8123006238022ADF80430ADF806408D
:1048A0007EF6DCFA284601A922467EF6D7FA204693
:1048B00022B0BDE8F0817FB52A3001A97EF63EFE28
:1048C000002007B000BD00F5C45370B5064686B0A1
:1048D0009C6A0CE0A56805E0A86801A92A307EF66C
:1048E0002DFE2D6804F108039D42F5D1246806F5DC
:1048F000C45328339C42EDD1002006B070BDF0B502
:104900001D4687B00023064604931446059300F520
:10491000C6531F6907B98F686B1E9DF8302030465B
:104920009BB2062B98BF082500232946009302F06E
:1049300047FD636823F00043636006F59453DA692A
:1049400042B106F58A521433506993E806000823F1
:1049500004F0ECFE636806F58A560593236806ACFE
:10496000706944F8083D2B4694E8060004F0DEFE2A
:1049700000950023012505932B4601950295049788
:10498000706994E8060004F017FF284607B0F0BDF0
:1049900000F594532DE9F0439E6A8BB004463046EF
:1049A0000F4602F028F80546002843D004F5A85821
:1049B000D8F800305B68002B3CD0B96818227EF62E
:1049C0004DFABB6802A9B5F80C901833BB60BB89DF
:1049D000183BBB810C232B70D8F80000FFF7D6FEE4
:1049E000069B6B60B9F1000F19D0049B2046089319
:1049F0003946059B0993BDF81C304B4538BF994695
:104A0000AB894B4504F58A5388BFA5F80C90422228
:104A10009B6A009208AA4B449BB2FFF770FFB368F1
:104A20002046DA882946334602F0BFFD04F5B45427
:104A3000002363720BB0BDE8F08308780128F8B555
:104A40000C46174618D08B689868A8B18D6B002665
:104A50000BE06B78A268D088584305F096FE0C23D3
:104A600003FB06530136F6B258622B789E42F0D310
:104A70000120AB70E7632070F8BD2DE9F04F0D46C3
:104A8000C98AA1F1020B8FB01FFA8BFBBBF1270F74
:104A90000646059100F28E8005F10808404609A9F6
:104AA0007EF64CFD06F5A853602202FB0BFBD3F803
:104AB00014A01AF80B700AEB0B04002F40F0A3802F
:104AC000EB8B302B079340F0A08005F10E0130698D
:104AD0003A4606916978069B8DE808012B7D029382
:104AE000012303F0D1FD8146023000F09080A88BB5
:104AF000C00805F04DFE606428B1A88BC00805F021
:104B000047FE206430B906F5C6539B691A88013206
:104B10001A807EE0A88BC00805F03AFE6065002888
:104B200077D006F5C553A4F85C70186804F0ABFBA9
:104B3000014600286DD08460E06430462A7DFFF78E
:104B4000EDFB0123A26804F124000599638421840C
:104B5000E98A1180A98B9180E98BD180296A9160C3
:104B6000696AD1600622069904937EF677F90622D7
:104B700004F12A0041467EF671F92A7D84F830203E
:104B80006A7884F8312019F4007F049B0AF80B300E
:104B9000079B6786A38684F81E9009D0022319F428
:104BA000807F84F8363003D0638C43F00403638441
:104BB000002700E0052706F59458D8F8280001F0F2
:104BC0001AFF0446D0B1002118227EF6CBF9042347
:104BD000304623706B78637021466B68ED8A6360A2
:104BE000D8F82830658127819A68D28802F0DDFCE8
:104BF00000280CBF4FF0FF30002001E06FF01A00DA
:104C00000FB0BDE8F08F042704E0032702E001277E
:104C100000E0022730462146FFF7BFFCCBE700F556
:104C2000A853F0B58C1E5B696022A4B285B002FB6C
:104C30000434638C5A0605462AD443F0400304F139
:104C4000240704F12A066384214601F0E3FE94F868
:104C50003110228C0097019694F830300293032390
:104C6000286903F011FD638E93B1286994F831101F
:104C700005F5C655228C95F8315094F830300DB1B9
:104C800043F08003029309230097019603F0FCFC94
:104C9000002005B0F0BD002110B50A460446C068EA
:104CA00004F5805488F62AFF0023636310BD006872
:104CB00002F01FBAF8B5436900F5C055044604F583
:104CC000C456DA6C00F5B4531A61D5F812300133CA
:104CD000C5F8123083F6D4FBB061D5F8227083F6A4
:104CE000CFFB73694FF480220621FF1A00233F187F
:104CF000C5F82270E06804F58C547361134605F022
:104D00005CF8E36A23F0080343F00103E362012344
:104D100084F83830F8BD000010B50446C068A168BA
:104D200005F0ADFA074A4FF47A7341F64C01B0FB37
:104D3000F3F3B2FBF3F36269C2F82011C2F8243135
:104D400010BD00BF80841E0010B50421044600235E
:104D50004FF0FF32C06889F623FC0021E0684FF075
:104D6000FF320B46BDE8104089F61ABC38B5044640
:104D7000A9B1A2B1084604F051F8094B04F59455C5
:104D80001A6801321A6001236A6A0146204602F05D
:104D900046FD2046696ABDE8384002F064BC38BD73
:104DA0003CE31D002DE9F84300F5A8534FF06009DE
:104DB000154609FB02F95F690646884607EB0904B8
:104DC0002B46144A601C07217EF632F9666106F50F
:104DD000B45600236A1DE371023507F809302284B6
:104DE000AD00F268A26380222377627784F83630C0
:104DF00084F83730E377D8F80420AA18E260D8F8AE
:104E0000082084F85130AD1884F850302561BDE891
:104E1000F88300BF026A1D0083692DE9F041D3F8D1
:104E2000308004464FF47060D8F8007005F0B0FC94
:104E300004F5A8535861B8B100265037354604F53B
:104E4000A8532A4620465B69414601359B196036C6
:104E50009F601037FFF7A6FF282DF0D104F5C65448
:104E60000023012084F83130BDE8F08100697047EB
:104E700000F58051436910B5CA6A1C6A22404A6332
:104E800002B11A62110618D5D3F8901100F58A52B2
:104E9000D3F8984101F4EE3104F4EE349161D46119
:104EA00009B1C3F89011D2690AB1C3F8982100F58D
:104EB00080535A6B22F080025A6300F58A5300F542
:104EC00080509969426BDB690A4313430CBF002091
:104ED000012010BD436900F58050D3F89C2122F4D5
:104EE000EE32C3F89C21D3F8942122F4EE32C3F8B9
:104EF00094215A6A816A22EA01025A62002383627B
:104F0000704700F58052D36A93624369D3F89411D5
:104F100041F4EE31C3F89411D3F89C1141F4EE3111
:104F2000C3F89C11596A926A0A435A62704700009A
:104F3000436910B51A68044642F441721A6000F5DC
:104F4000C7531A6800F5C6530AB9134A08E0022A83
:104F500002D14FF4003203E0012A02D14FF4407233
:104F6000DA61DA6920460D4B134304F58052D362AF
:104F7000936204F58C538022DA62FFF72AF9084B1A
:104F8000204604F588541A6842F400321A60FFF78C
:104F9000B8FF0123237110BD00030200C00001010E
:104FA00088E21D002DE9F8430446FFF71EF920466C
:104FB000FFF771FEE06888F6E1FF002852D06369D0
:104FC00004F58A55284E20461A6842F004021A60F9
:104FD000FFF7AEFFD6F85C902869C847D6F808807E
:104FE0002869C047B76D2869B84776682869B0470F
:104FF0006869C8476869C0476869B8476869B04761
:105000006369204604F5C055D3F8A42104F5C456BD
:1050100042F01002C3F8A42104F58C531122DA6285
:10502000FFF7D7F804F5B45301221A7563691A68BB
:1050300042F004021A60D5F81A300133C5F81A306C
:10504000736953B1D5F8227083F61AFA7369FF1A9F
:1050500000233F18C5F82270736183F611FA04F536
:10506000C454E061BDE8F883B8FC0700FFF700BF57
:1050700000F5C25310B5D3F81E400134032AC3F81B
:105080001E4003D14369C3F8481110BD042A04BF70
:105090004369C3F84C1110BD70B500F59454254A0E
:1050A0000546616BFFF7C9FC216B234A064628467B
:1050B000FFF7C3FCD6F1010638BF0026A16A002223
:1050C000002808BF46F001062846FFF7B6FC05F5A4
:1050D000955300221968002808BF46F001062846AB
:1050E000FFF7ABFC616A0022002808BF46F001060A
:1050F0002846FFF7A2FC94F83930002814BF304648
:1051000046F00100ABB9AB695A6BE261082A01D9DC
:105110000822E261E2693AB1DA6B9B6BA26100227C
:10512000636105F58A539A6205F59455012385F864
:10513000393070BD5D5F1800357F1800FFF728BC5F
:105140002DE9F04F9A468DB09DF858700023044623
:105150000D4616460A9302E0EA5C12B10133B342EF
:10516000FAD1EA5C002A40F03C8203F101084FB119
:105170000533B34200F232820AA805EB080104228B
:105180007DF66CFE05F1040B58468D497DF676FFE1
:10519000814650B94FB10A9B662B00D1FEE7632BC5
:1051A00040F02282FDF794FEB8E0584685497DF62E
:1051B00065FF002800F0F281584683497DF65EFFC6
:1051C000002800F0EE81584680497DF657FF002800
:1051D00000F0EA8158467E497DF650FF40B904F55B
:1051E0008C5117B10A9B0B6134E02846103120E046
:1051F000584678497DF642FF814618B92046FFF7A8
:105200009DFAD3E1584674497DF638FFA8B94FB1ED
:105210000A9B022B01D902230A9363690A9AC3F8F5
:10522000A021D6E16369D3F8A0310CA9284641F842
:10523000083D04227DF612FEDBE1584667497DF603
:105240001DFF48B9002F00F0CF810A9920460222A5
:10525000FFF7DAF90746CCE1584661497DF60EFFC3
:1052600030B9002F00F0C08120460A990122EFE7F3
:1052700058465C497DF602FF30B9002F00F0B4813A
:1052800020460A990022E3E7584657497DF6F6FE84
:1052900068B90026602000FB0640013600F59450F6
:1052A0003C30FFF77EF8052E0A90F3D152E05846C5
:1052B0004E497DF6E3FE814618B92046FEF7B6FF5B
:1052C0005EE058464A497DF6D9FE50B904F5B4541B
:1052D0002FB10A9B003318BF01232376BAE7237E40
:1052E000A3E7584643497DF6C9FE50B904F5B454C6
:1052F0002FB10A9B003318BF0123E375AAE7E37DB2
:1053000093E758463C497DF6B9FE814640B90A9874
:10531000D0F1010038BF0020FEF75DFA4F4668E18A
:10532000584636497DF6AAFE002893D0584634499F
:105330007DF6A4FE88B906460A9004F5A8535B6979
:1053400098199B5D13B1FFF7B6FA0A906036B6F56F
:10535000706FF2D128460AA938E1584629497DF6EE
:105360008DFE814618B92046FFF7ADFA08E0584691
:1053700025497DF683FE814650B92046FFF713F894
:105380000CA9042241F8080D28467DF667FDC5E703
:1053900058461E497DF672FE002839D1002F00F0D4
:1053A000238104F5B5531F78002F40F0128104F5D6
:1053B000B45401220A991A70E06982F673FE18E16A
:1053C000096A1D00146A1D00226A1D002E6A1D0054
:1053D000396A1D00486A1D00526A1D005C6A1D0082
:1053E0006B6A1D00786A1D00866A1D008F6A1D00A9
:1053F0009E6A1D00B36A1D00C86A1D00DA6A1D009E
:10540000EB6A1D00F76A1D00056B1D00106B1D0087
:1054100058467A497DF632FE78B904F5B5531A78C4
:10542000012A4FF000097FF479AF04F5B45483F8F2
:105430000090E069FDF7ACFF70E7584670497DF6D3
:105440001DFE8146002859D1002F3DD004F5C055DE
:1054500005F112064946304680227DF683FD04F5AB
:10546000C450494614300C227DF67CFDD5F822004C
:10547000D5F81280D5F81670D5F81A60D5F81E90B8
:1054800008B982F6FDFF04F5C25401904146CDF8FB
:1054900000903A46D5F826300293D5F82A30039387
:1054A000D4F81A300493D4F81E300593D4F822307F
:1054B0000693D4F826300793D4F816300893334671
:1054C00050487DF675FD84E008F102039E42C0F06D
:1054D0008280832E40F2828002220DF12E0005EBA5
:1054E00008017DF6BBFCBDF82E30062B79D1204695
:1054F0002946FFF760F9CAF800007AE058464249A9
:105500007DF6BCFD78B904F58C5327B10A9A814623
:1055100083F832204BE093F832302B700123B946E8
:10552000CAF800304BE0584638497DF6A7FD70B9FF
:1055300004F5C65117B10A9B4B728BE62846093118
:1055400001227DF68BFC0123CAF8003051E0584659
:105550002F497DF693FD40B904F5C6541FB1BDF83F
:105560002830E38576E6E38D5FE6584629497DF6E7
:1055700085FD002838D167B104F5C45303F1280232
:105580009B6A934233D104F5C6540A9B84F83130A8
:1055900060E604F5C65494F8313046E64FF005094C
:1055A00004E04FF0060901E04FF007093FB109F5AB
:1055B000886909F102090A9B44F8293009E009F5D4
:1055C000886909F10209284604EB890104227DF665
:1055D00045FC00270DE04FF0FF370AE06FF00D07A4
:1055E00007E06FF0010704E06FF0160701E06FF0CD
:1055F0000F0738460DB0BDE8F08F00BF1C6B1D00D3
:10560000765F0900276B1D00DF6B1D00EA6B1D0034
:10561000F16B1D00FB6B1D0000F594532DE9F04369
:105620008E8991F813909F6A083E8B688DB0B6B250
:1056300008338E8104468B6000F5A6530D4604A9FD
:10564000D86BFFF7A3F8014680B1069BBDF8242074
:1056500096420A93079B0B93DDF8208014D93146BC
:1056600016487DF6A5FCBDF824600DE02046072213
:105670004FF0FF33FEF7F0FEA0682946012205F047
:10568000C5F84FF0FF3015E004F58A530022294693
:105690009B6A204600920192F31841229BB202922B
:1056A0000AAA01F09DFE2046414632464B4600972D
:1056B000FEF7F3FE0DB0BDE8F08300BF076C1D00E0
:1056C000F8B500F58C5393F831300446002B35D0F3
:1056D00000F58E531B7A002B30D0194E00F58A55F9
:1056E000376D2869B84748BBD6F8A4602869B04729
:1056F00020BB6869B84708BB6869B047F0B904F5D2
:105700009453596A8B6B5B6913B1204601F0ABFF70
:1057100004F5955319688B6B5B6913B1204602F051
:10572000CBF920460121FEF791FF04F58E530022AC
:1057300004F58C541A72012384F83930F8BD00BF87
:10574000B8FC070070B504460020FEF744F8204678
:105750000021FEF77DFD04F58C55012304F58E52E2
:1057600085F8313004F5B456137296F83C302BB1FD
:10577000B06BFDF70DFE002386F83C30EB6A204647
:1057800043F0080323F00103EB62FEF722FD2046FD
:10579000BDE87040FFF794BF38B500F58D5304465F
:1057A0001B685BB31D684DB300221A60EB0701D57F
:1057B000FFF7C8FF002D01DA83F6E2F804F5C752BF
:1057C0001368DBB904F58053596B04F5C65311F423
:1057D000003F04D0022111604FF4003206E011F4C2
:1057E000407F04D0012111604FF44072DA61DA6920
:1057F00004F58054024B1343E362A36238BD00BF3B
:10580000C00001010A4600F58C5393F83010FF29BF
:1058100002D0C06805F08DB9C368DB68082B07D9D2
:10582000436919680AB141F4C031196043691B68C2
:105830001046FDF7E9BF4369042270B5C3F8202183
:105840000446D3F82421510735D594220025C3F806
:10585000202104F58C56C3F82451FEF7C9FD2046DB
:10586000FEF7E6FC86F839500120FDF7B4FF86F814
:105870003150756320462946FFF7C4FF04F5B45341
:105880001A7D6AB120461D75FEF733FF96F8281081
:10589000A1F102025142204641EB0201FEF7D8FC81
:1058A000204601F04EFD204602F04FFA204601F05E
:1058B00020FC002070BD4FF0FF3070BD43692DE922
:1058C000F0411A680446910759D55A68D20556D551
:1058D0004FF42862C3F820210322C3F8242100F5E5
:1058E0008C53002283F8382000F5B4531D7D7DB120
:1058F000FEF708FD2046FEF729FC2046FEF798FC3F
:105900002046FFF709FA4FF47A7082F601FF1DE096
:1059100004F5C05606214FF480222B46C06804F5DA
:10592000C45704F04AFAD6F81630D6F82680013368
:10593000C6F8163082F6A4FDBB69C3EB08088044A4
:10594000C6F82680BD6182F69BFD786104F58C5611
:105950002046F36A23F00103F362FFF76CFF70B196
:1059600004F58E552A782AB9F06B696882F69AFB9D
:1059700001232B7004F58C54012384F83930BDE8E1
:10598000F0814269F8B5136804469B073FD500F5DE
:10599000B453197D00293AD0196911B1D16400229C
:1059A0001A6104F5C05506214FF480220023E068F7
:1059B00004F003FA2046FFF781FF2046FEF709FCBA
:1059C000D5F81E30D5F82A6004F5C4540133C5F863
:1059D0001E3082F655FDE369F61A3618C5F82A60BE
:1059E0000026E66182F64CFD6061D5F81630D5F8E8
:1059F00026700133C5F8163082F642FDA369FF1AFE
:105A00003F18C5F82670A66182F63AFD6061F8BDC0
:105A1000426938B5D2F8A4310446D2F8A41119432A
:105A2000C2F8A41100F58C52D56A1D4028D02B076E
:105A300001D5FFF73FF9E80706D504F5B4531B7D00
:105A400013B92046FFF73AFF290607D504F58C5312
:105A5000DA6A22F0800242F01002DA62EA060AD51F
:105A600004F58C532046DA6A42F0800222F01002DC
:105A7000DA62FFF786FF2046BDE83840FEF7A9BB93
:105A800038BDF8B500F5805500F58C5393F83160BA
:105A900004466B6B002B50D000F5C652D2691342FE
:105AA00001D0FFF779FE6B6BDB0328D504F5C253F9
:105AB00004F58C55D3F81A200132C3F81A2046B9E0
:105AC00095F831302BB104F5C8535A6801325A6049
:105AD00012E095F839307BB12046FFF7ACFE07465F
:105AE00038B904F58E5633781BB1E86BFDF750FCDE
:105AF00037702046FEF76DFB204601F0FAFA04F5F8
:105B000080535B6B5D060ED504F58C5393F83820FB
:105B100032B993F83130012B02D12046FFF7CAF891
:105B20002046FFF73FFA04F580556B6BD80102D58C
:105B30002046FFF76DFF00236B6304F58A55AB69C0
:105B400033B1D90302D5204602F02AFB0023AB6112
:105B500004F58A55EB6943B1DA0305D5204602F016
:105B6000F1FA0023EB6100E0FEE704F58C5393F8B3
:105B7000313033B104F58E531B7A13B12046FFF751
:105B80009FFD04F58A5304F580549969626BDB69C3
:105B90000A4313430CBF00200120F8BD10B5046870
:105BA0002046FFF748FE04F58E5340B104F58C54AF
:105BB00059680022E06BBDE8104082F673BA187095
:105BC00010BD0000074B186858B100F58C5393F8CE
:105BD000313013B10121FFF715BE4FF08051FEF7B0
:105BE00035BD704738E31D0000F5A85238B512687E
:105BF00000F59453044652689B6A002A2DD09A6B94
:105C00009278012A29D900F58C521268156800F59E
:105C10008A52D26B10689A6891881A691B8B126835
:105C20009A4288BF5B189A1A013992B28A1A92B2C4
:105C3000012A12D9052D10D908280ED92046002195
:105C4000FEF7E2FB04F58A5204F5C6532069116B96
:105C50001A69BDE8384002F02FBD38BD00F5A853E1
:105C60002DE9F047CF89B1F810901B680D46044626
:105C7000596809B9092209E000F5C058D8F80C3074
:105C8000DA89273ABA4206DC002103226B68BDE8B4
:105C9000F047FEF7E1BB184603F023F9064618B9B2
:105CA000204631460222F1E704F5C652D8F80C30FE
:105CB000DB89283B11699BB219B9994584BF994684
:105CC0002B8204F5A85212685268928A29B104F511
:105CD000C65149698A4228BF0A46914588BF2A822F
:105CE00004F58A52116B09B12046CDE728331663BB
:105CF0002946B3812822B0687DF6B0F804F58C52AD
:105D0000012393773FB904F5B45220465372BDE89E
:105D1000F047FFF769BFB36804F5A852283310694C
:105D2000EA694260AA69C360044B026007810361AB
:105D30004461BDE8F047FDF79FBD00BF7B5D1800E3
:105D400038B500F58C539A7F04460AB100229A7741
:105D500004F58A55296B19B1A068002204F056FD9C
:105D600004F5B45304F5A85400210A462963597276
:105D7000E068BDE8384082F695B938B544690D460B
:105D80001C2204F5A853002118697DF6EBF855B1E3
:105D900004F5C65320469B69DA880132DA80BDE8F3
:105DA0003840FFF7CDBF04F58A531B6B43B104F5B0
:105DB000B453012220465A72BDE83840FFF714BFA1
:105DC00038BD2DE9F84300F5A85391468A1E5B695A
:105DD0000746602192B24A439C18002507F5945863
:105DE0009D54E16CFEF7A1FBD8F8280000F003FEFB
:105DF000064610B3182229467DF6B4F80623384625
:105E0000337094F8313073702146A36C7360238C27
:105E1000A6F808907381FEF7E7FBD8F828303846DB
:105E200031469A68D28801F0C0FB50B1638C23F0F0
:105E3000100328466384BDE8F8836FF01A00BDE8BC
:105E4000F8834FF0FF30BDE8F88370B50A46098942
:105E50008D1E0346ADB2272D01D9052208E000F5BD
:105E6000A8546026754366697419755D25B90122C9
:105E7000BDE87040FFF7A5BF5268A2642069E268E0
:105E800000681268824202D0608B824205D1628E25
:105E90001AB9E27F0AB91846EAE7628C42F01002AA
:105EA00018466284BDE87040FEF7B9BE2DE9F8439C
:105EB00000F5945700F5A8530646B86A89469046FF
:105EC0005C6900F098FD054608B3A9F1020960235A
:105ED0001FFA89F9002103FB094418227DF642F8D4
:105EE000082330462B7094F831306B702946A36C30
:105EF0006B60238C6B81BB6AA5F808809A68D28896
:105F000001F053FB18B1638C23F020036384BDE8D8
:105F1000F88330B50A4609898C1EA4B2272C01D912
:105F200005220EE000F5A853602552685B6905FB69
:105F300004339A64DC681A6924681268944204D1B4
:105F40000022BDE83040FFF7B1BF5A8C42F020027A
:105F50005A84BDE83040FEF762BE0000F8B500F597
:105F60009453164604465B6B0D469B689F7992FBE3
:105F7000F7F207FB1263002B6CD100F58C539B7F6B
:105F8000012B02D10B78092B64D004F5C253D3F84E
:105F900022105218C3F8222059E02B78092B0ED07A
:105FA00006D8052B36D0072B39D0032B41D12CE056
:105FB0000D2B1BD0202B37D00B2B3AD109E004F549
:105FC0008C539B7F012B3FD020462946FFF746FE8E
:105FD0003AE004F5A853204629461A68FEF7EFF880
:105FE000002831D0204600210A220AE004F5A653F9
:105FF00020462946DA6BFEF7E2F828B32046002156
:106000000B220B46FEF770FA1EE020462946FEF7EB
:1060100034FD19E020462946FFF717FF14E020461B
:106020002946FFF776FF0FE020462946FEF7B8F92C
:106030000AE00021204603220B46FEF755FA0748E6
:10604000294608227DF6FCFBF61BED19B6B2002EA0
:10605000A3D101E04FF6FF763046F8BD2A6C1D0053
:10606000704710B504468068FFF70BFD38B100217A
:1060700004F11C000A46BDE8104082F613B8A0687F
:10608000BDE81040FEF73DBF10B58469A068FEF77B
:10609000EFFE38B1A068FEF71DFF2046BDE81040B6
:1060A000FFF7DFBF10BD0000F0B5023985B01E4616
:1060B0000023012915460A9C8769039312D80D48CD
:1060C0007DF604F80B49024628467DF607F848B9E4
:1060D0009DF830300093B8682946324603ABFFF78D
:1060E0002FF801E04FF0FF300CB1039B236005B0A7
:1060F000F0BD00BF3A6C1D008969034688691946E6
:1061000002F02ABA10B54468A068FEF7AFFF204637
:10611000BDE81040FFF7A5BF1346826910B590682F
:106120004A1E0C46142A38D8DFE802F00B0B37372A
:10613000371414371F1F3737323737373737372978
:1061400029009978A4F101035A4242EB030202F0BC
:1061500089F822E0A4F1060C9978DCF1000242EB08
:106160000C02073302F0E3F817E0A4F1090E1979E5
:10617000DEF1000242EB0E0202F099F80DE0D97850
:10618000A4F114035A4242EB030202F0B0F804E017
:106190009978DA789B7902F0F5F8002010BD0A466C
:1061A00081690346886919467FF690BD0A46816970
:1061B00003468869194602F083BA10B54B8C13F078
:1061C00040040DD08B6B5878CB681A684B8B9A4281
:1061D0003CBF8A689288D31A834238BF184610BDE4
:1061E00000F588535B6B1B89C3B100F5C050028A70
:1061F000934215D9981A8C8ECB68A04228BF2046AE
:106200004A8B1C6894422FBFC2EB04028B689B88A8
:10621000C2EB0302904228BF104610BD184610BDC5
:10622000204610BD0022134610B5841804F5A95469
:106230002478194644B9242202FB0303012203F502
:10624000A95308461A7004E0013324320A2BECD11A
:10625000FF2040B210BD2423002203FB010303F5FD
:10626000A9531A7070470369428B1B689A4205D381
:10627000994208D3914206D241837047914201D39B
:10628000994200D341837047836BDA685868824231
:1062900008D00AB99A6800E052689160DA609A788A
:1062A00001329A70704700F5945030B5036B9B6BC8
:1062B0009B699D78587885421C788ABFC5EB040598
:1062C000C5EB00052D18651B012D08DD03EBC0058E
:1062D0000130A042A8BF002069602A72587030BD0A
:1062E00000F5C65393F82420436922B1D3F8E02186
:1062F00042F0020203E0D3F8E02122F00202C3F8E8
:10630000E021704730B54589158042680A60C2694E
:106310005A6042F0004281695A60049A1960038908
:10632000039C13801BB1436963600369236030BD24
:1063300000F58050838CC08C834296BFC0F580707E
:10634000C0EB0300C018704700F5A85043681A68F6
:1063500012B95960196002E05A68916159609A68EF
:1063600001329A6000238B61704700F5A8504368A2
:10637000186870B15A6890429A6802F1FF329A60C8
:1063800003D100225A601A60704782691A600023A4
:10639000836170470346F0B5C0680688588B864213
:1063A0009C6828BFC0EB0600A58838BFC0EB05007D
:1063B00080B20880E0B19E6B3AB1E788B2FBF7F299
:1063C0007678B24228BF324600E07278904228BF09
:1063D000104608805E8BE288A0680C883419AC42B5
:1063E000A8BF002402FB06005C830B885A430A8086
:1063F000F0BD70B18268D388B1FBF3F149B1036994
:10640000188841189288914202DB00221A60704776
:1064100019607047F0B50B8B0D698C68A688E08811
:10642000B2FBF0F22D68AB4234BFC3EB0507C3EB00
:1064300006079D4286BF06EB030CC5EB0C05C5EBBA
:10644000030506F1FF3CC5EB0C05BD4238BF2F46E6
:10645000BFB2974208D3A46800FB03409B18B34225
:10646000A8BF00230B83F0BD0020F0BD00F59553BD
:1064700030B5196804468B6B9878002825D00A69D6
:106480000B8B8D68A888126893422ABFA988C3EB3A
:106490000201C3EB01019A4288BFC3189A1A01385E
:1064A000801A884228BF084678B104F58C531B68CF
:1064B0001B68042B08D904F58A54E36B1868062876
:1064C00094BF0020012030BD002030BD30B500F564
:1064D0008054A38C5D1C03F58273EDB200EBC30006
:1064E000A58483680B6083791370808830BDF0B514
:1064F0009589B2F85470DDF818C0059E079CACF879
:1065000000701FB1D76C7760976C3760D68916F42E
:10651000005F0DD0B2F8506056B1C5F1880601F5A4
:1065200094512680166C546C751BCE69A91B06E02D
:1065300001F59451898B2180116C546C8839956BCD
:106540001D60D38923F4005380E81200D381F0BD8D
:1065500010B50346A8B18268D088B1FBF0F181B1D3
:1065600058699288DB681C886118914202DB00221E
:106570001A6000E0196003490322BDE81040FEF7ED
:1065800077BD10BD78563412F8B517469A68127860
:10659000432A04460E46069D21D0462A19D00E2ACB
:1065A0003FD100F594539B6A9B6B9878002849D0A3
:1065B00004F5A65304F5C654DB6B586810B90123E3
:1065C0002372F8BD0023052023721F4B2B60042388
:1065D00030E0FFF74BFF002834D01C4B1DE000F5E6
:1065E0009454616A0B8B0A698868126893422CBFC5
:1065F0008488C3EB0204808828BFC3EB04049A425A
:1066000088BFC3189A1A0138801AA04228BF2046B2
:10661000C0B18B6B9878A8B10D4B2B600720052378
:1066200008E080681946012204F0F0F800230120F8
:106630002B60F8BD9E4204D3874234BF0020012066
:10664000F8BD0020F8BD00BF19561800037C1800E3
:10665000A378180000F58C5380685A6901325A619A
:10666000012204F0D3B870B500F58C5393F83130A3
:10667000002B4CD100F5A8531C7F002C47D100F50E
:10668000C4539B6A33E000221A769A6819E0916835
:10669000CD682E684D8BAE4203D314BF0025012573
:1066A00007E08E68B688C5EB060CDCF1000545EB0B
:1066B0000C052DB94D8C45F002054D84012119764C
:1066C000126803F108018A42E1D15CB9DA8A2F2A03
:1066D0000AD8197E41B1023292B2312ADA8203D14C
:1066E000302200E00422DA821A7E1B68144300F58F
:1066F000C45228329342C6D14CB100F5A854217F30
:1067000029B9A0690A4681F6CDFC0123237770BD23
:106710002DE9F843B1F81A80571E8B689E8808EB64
:10672000070393FBF6F90C4606FB1939486D15462D
:106730001FFA89F949467DF60BFBA8B1A26D32F824
:106740001930590410D5012D0DD0A91E884498FB8D
:10675000F6F106FB11881FFA88F832F818209A42E1
:1067600002D0BDB200E000252846BDE8F8832DE93F
:10677000F0410446618B406C7DF6EAFA002850D067
:10678000E368678B1B68BB4202D3C7EB030805E0D5
:10679000A268B2F80480C7EB080898441FFA88F88A
:1067A00000263BE0F519A3689B8895FBF3F1206C6C
:1067B00003FB11517DF6CCFA90B1A3689B8895FB41
:1067C000F3F1606C03FB11517DF6C2FA40B9A36886
:1067D0009B8895FBF3F203FB12556583BDE8F081BE
:1067E000A3689B8895FBF3F1206C03FB11517DF6A8
:1067F000AFFA90B1A3689B8895FBF3F1606C03FB43
:1068000011517DF6A5FA40B1628B0132A3689B88D5
:1068100092FBF3F103FB112363830136B3B24345CB
:10682000C0D3BDE8F08173B51E4600238C681546C1
:10683000ADF806304A6824F07F4323F46003C2F3C6
:1068400014029B1A072B3FDDA4F108038B608B8990
:1068500008338B8102238B74052304F8083C06233C
:1068600004F8073C95F83620500718D5069B1BB155
:10687000D90E01F00F0100E0194641F0020123F0AA
:10688000F04343EAC163069395F83730013BDBB22E
:1068900085F837301BB922F0040285F83620686D80
:1068A00031467DF655FA20B1AB6D33F81630ADF8B0
:1068B000063006A90422A01F7CF6D0FAA01E0DF116
:1068C000060102227CF6CAFA7CBD2DE9F04389B0AC
:1068D000984604AC002305460693B8F1070F8CBF19
:1068E00047460827079300F58C5384E8060093F881
:1068F0003130DDF84090002B3CD100F5C65393F8C1
:10690000242022B9012283F82420FFF7E9FC05F5B1
:106910008A5608ACF36A44F8089D4BB1119B069364
:106920000823306994E8060002F000FFCDF81890C3
:1069300094E806003B46306902F0F8FE05F58A52FD
:106940000123009701930293106904AA06CA02F07A
:1069500033FF05F58052D38C591C03F58273C9B2FD
:1069600005EBC3059DF84C30D184AB71129BA5F8A3
:106970000480AB6009B0BDE8F0832DE9F041066802
:1069800006F5C4539D6A25E0AC681EE0A768B86DA3
:10699000D0B1B7F85C80B8F1000F12D103F004FF5A
:1069A00006F5C653C7F8588093F82D20013A4146A2
:1069B00083F82D20BB689A88786DD2087CF6D2FACD
:1069C00002E00023A7F85C30246805F108039C422C
:1069D000DCD12D6806F5C45328339D42D4D106F589
:1069E000C65696F82D4024B9B06AFCF7D1FC86F85B
:1069F0002C40BDE8F081826BD36843B100219868D8
:106A000099601B68D3609378013B93707047184678
:106A1000704700002DE9F34705460C46FFF702FCDE
:106A2000071EC0F29980A36B9B78002B00F08D802D
:106A30002423628B284603FB0753214603F5A95301
:106A400000265A80FFF7B9FB1FFA80F80FE0628B2F
:106A50009219A3689B8892FBF3F1606C03FB1121F0
:106A60007DF676F910B11FFA86F802E00136464548
:106A7000EDDBB8F1000F68D0284621464246FFF70B
:106A800047FE002861D0A3680DF10601DA88424371
:106A9000204692B2FFF77EFC8246002855D0204661
:106AA000BDF80660A368DB88B6FBF3F6FFF7A3FF2B
:106AB0004FF0240808FB07F805EB080707F5A95372
:106AC00059888A19013AA3689B8892FBF3FE03FB5D
:106AD0001E22013B8146206C02F098FBB9F1000FA9
